:020000040800F2
:10000000C8500020E90200083B1B0008DD1700086B
:10001000391B00081F0600088921000800000000A5
:10002000000000000000000000000000290200089D
:10003000710600080000000085020008751B00081A
:100040000303000803030008030300080303000878
:100050000303000803030008030300080303000868
:100060000303000803030008030300080303000858
:100070000303000803030008030300080303000848
:100080000303000803030008030300080303000838
:100090000303000803030008030300080303000828
:1000A0000303000803030008030300080303000818
:1000B0000303000803030008030300080303000808
:1000C00003030008030300080303000803030008F8
:1000D000030300087D210008030300080303000850
:1000E00003030008030300080303000803030008D8
:1000F00003030008030300080303000803030008C8
:1001000003030008030300080303000803030008B7
:1001100003030008030300080303000803030008A7
:100120000303000803030008030300080303000897
:100130000303000803030008030300080303000887
:100140000303000803030008030300080303000877
:100150000303000803030008030300080303000867
:100160000303000803030008030300080303000857
:100170000303000803030008030300080000000055
:10018000030300080303000800F002F800F03CF845
:100190000AA090E8000C82448344AAF10107DA45E2
:1001A00001D100F031F8AFF2090EBAE80F0013F0F8
:1001B000010F18BFFB1A43F001031847643A00000F
:1001C000843A0000103A24BF78C878C1FAD85207A0
:1001D00024BF30C830C144BF04680C6070470000C1
:1001E0000023002400250026103A28BF78C1FBD840
:1001F000520728BF30C148BF0B6070471FB503F0DE
:1002000067FC1FBD10B510BD00F0D0F91146FFF717
:10021000F5FF02F009F800F0EEF903B4FFF7F2FF82
:1002200003BC00F0F5F900002C4B19680868B0E831
:10023000F04F80F30988BFF36F8F4FF0000080F319
:10024000118870470000000008480068006880F3CB
:1002500008884FF0000080F3148862B661B6BFF3DF
:100260004F8FBFF36F8F00DF00BF00BF08ED00E0CE
:10027000DFF80C00016841F470010160704700BFB5
:1002800088ED00E0EFF30980BFF36F8F134B1A681E
:100290001EF0100F08BF20ED108A20E9F04F10600B
:1002A00009B44FF0500080F31188BFF34F8FBFF3B4
:1002B0006F8F02F0DFFE4FF0000080F3118809BC61
:1002C00019680868B0E8F04F1EF0100F08BFB0ECD6
:1002D000108A80F30988BFF36F8F704728000020D1
:1002E000EFF3058070470000094880470948004740
:1002F000FEE7FEE7FEE7FEE7FEE7FEE7FEE7FEE7D6
:10030000FEE7FEE704480549054A064B7047000032
:10031000211C000889010008C84A0020C85000209C
:10032000C84C0020C84C002053EA020C00F0698041
:100330002DE9F04B4FF00006002B1FBFB3FA83F5F9
:1003400003FA05F424FA05F65E4012BF1643B2FA2A
:1003500082F502FA05F4C5F120051EBF22FA05FC5C
:1003600044EA0C04203556EA044C4FEA144418BF02
:10037000641C4FF000084FF00009904271EB030C31
:1003800039D3002919BFB1FA81F701FA07F6B0FA9B
:1003900080F700FA07F6C7F120071EBF20FA07FC16
:1003A00046EA0C062037B6FBF4FCA7EB0507103F26
:1003B00007F01F0BCBF120060CFA0BFB2CFA06F60C
:1003C00044BFB3460026202FA4BF5E464FF0000B6B
:1003D0005BEA060C08BF4FF0010B19EB0B09ABFBF6
:1003E000027C48EB0608C01B06FB02CC0BFB03CCCF
:1003F00071EB0C01C1E70B46024641464846BDE899
:10040000F08B13B54FF000004FF00001AFF3008008
:10041000BDE81C407047032A40F2308010F0030C06
:1004200000F0158011F8013BBCF1020F624498BF47
:1004300011F801CB00F8013B38BF11F8013BA2F1E4
:10044000040298BF00F801CB38BF00F8013B11F05F
:10045000030300F05780083AC0F0088051F8043BCD
:10046000083A51F804CBA0E80810F5E7121D5CBF6C
:1004700051F8043B40F8043BAFF30080D20724BF9F
:1004800011F8013B11F801CB48BF11F8012B24BF33
:1004900000F8013B00F801CB48BF00F8012B704782
:1004A00002F0FF0343EA032242EA024200F05EB890
:1004B0004FF0000200B5134694469646203922BFFD
:1004C000A0E80C50A0E80C50B1F12001BFF4F7AF48
:1004D000090728BFA0E80C5048BF0CC05DF804EB2A
:1004E000890028BF40F8042B08BF704748BF20F898
:1004F000022B11F0804F18BF00F8012B7047704796
:100500007047704710B5203AC0F00B80B1E8185022
:10051000203AA0E81850B1E81850A0E81850BFF4ED
:10052000F5AF5FEA027C24BFB1E81850A0E818508C
:1005300044BF18C918C0BDE810405FEA827C24BFE0
:1005400051F8043B40F8043B08BF7047D20728BF6E
:1005500031F8023B48BF11F8012B28BF20F8023BBD
:1005600048BF00F8012B70474FF000020429C0F08B
:10057000128010F0030C3FF49DAFCCF1040CBCF1E1
:10058000020F18BF00F8012BA8BF20F8022BA1EB27
:100590000C01FFF78FBF5FEAC17C24BF00F8012B7D
:1005A00000F8012B48BF00F8012B7047754600F09A
:1005B0002BF8AE4605006946534620F007008546F5
:1005C00018B020B5FFF79EFEBDE820404FF00006B2
:1005D0004FF000074FF000084FF0000B21F007012B
:1005E000AC46ACE8C009ACE8C009ACE8C009ACE86E
:1005F000C0098D46704710B50446AFF30080204611
:10060000BDE81040FFF709BE00487047684A002067
:1006100001491820ABBEFEE7260002007047FEE746
:10062000104D114F114C4FF400462878A0B1012213
:100630003146384600F0A5F901222021204600F07D
:10064000A0F900220421204600F09BF9002202219B
:10065000204600F096F9E8E701F0C0FD01F0A6FDA4
:10066000FAE70000A8000020000802400010024045
:100670007047000070B50E4D0E4C0F4E13E0102168
:10068000284600F071F920702021284600F06CF90E
:1006900060704021284600F067F9A070802128464C
:1006A00000F062F9E07030680128E8D170BD000008
:1006B00000000240B8000020B400002072B6FEE73F
:1006C0002DE9F0410446876D00F060F9064694F884
:1006D00035000025022806D08020606584F834505B
:1006E0000120BDE8F0812068016821F01601016059
:1006F0002068416921F080014161206C08B9A06C3B
:1007000020B12068016821F00801016020680168BB
:1007100021F0010101600CE000F038F9801B052890
:1007200007D920206065032084F8350084F8345010
:10073000D7E720680068C007EED194F85C103F202E
:100740008840B860012084F8350084F834500020D7
:10075000C7E790F83510022903D0802141650120B8
:100760007047052180F835100068016821F001010B
:1007700001600020704700002DE9F84FDFF8BCA1B0
:100780000022012503264FF00F090AF1040BAAF1FC
:10079000040E00BF0B6805FA02F42340A34270D197
:1007A0000F7907F00307012F01D0022F16D18768B8
:1007B0004FEA420806FA08FC27EA0C07D1F80CC0F9
:1007C0000CFA08FC4CEA070CC0F808C04768A743BD
:1007D0000C79C4F3001494403C4344600C79E44326
:1007E000A4070AD0C4684FEA420C06FA0CF7BC43CF
:1007F0008F6807FA0CF72743C7600C7904F00304ED
:10080000022C12D1D40800EB840CDCF820405707EE
:10081000FF0E09FA07F824EA0804D1F8108008FA54
:1008200007F848EA0408CCF8208004684FEA420C34
:1008300006FA0CF7BC430F7907F0030707FA0CF729
:10084000274307604C6814F4403F70D03C4C276845
:1008500047F480472760246822F0030704F48044AB
:100860000094384C07EB040CDCF8084897074FEA73
:10087000177809FA08F7BC43334FB84202D1002772
:1008800024E054E0314FB84201D101271EE0304F3F
:10089000B84201D1022719E02E4FB84201D10327F7
:1008A00014E02D4FB84201D104270FE02B4FB8427E
:1008B00001D105270AE02A4FB84201D1062705E0F9
:1008C000284FB84201D1072700E0082707FA08F7A8
:1008D0002743CCF80878DAF800405746D1F804C02E
:1008E0009C435FEACC2C00D51C433C60DBF8004005
:1008F0005F46D1F804C09C435FEA8C2C00D51C43B2
:100900003C60DEF800407746D1F804C09C435FEAC3
:100910008C3C00D51C433C60084F083F3C68D1F834
:1009200004C09C435FEACC3C00D51C433C60521C95
:10093000102AFFF42FAFBDE8F88F0000083C0140FB
:1009400044380240003001400000024000040240F0
:1009500000080240000C0240001002400014024057
:1009600000180240001C02400069084000D001202D
:100970007047426921EA02030A4043EA0241816169
:1009800070470AB1816170470904FBE7014880683C
:100990007047000018000020024881680278114466
:1009A00081607047180000200B4810B5016841F4C1
:1009B00000710160016841F480610160016841F4E7
:1009C00080710160032000F073F80F2000F006F83A
:1009D00000F024F8002010BD003C024070B50D4D21
:1009E00004464FF47A712878B1FBF0F00A4909689F
:1009F000B1FBF0F000F010FB48B9102C07D2002238
:100A00002146501E00F034F800206C6070BD0120BB
:100A100070BD000018000020240000200C4882B0A7
:100A2000016841F480410160006800F4804000905A
:100A30000748001F016841F08051016000680022F2
:100A400000F0805000900F21901E02B000F010B80E
:100A500044380240002809DB00F01F0201219140C8
:100A60004009800000F1E020C0F80011704700004C
:100A7000F0B40E4B1B680C46C3F30223C3F1070509
:100A8000042D00D90425191D072901D2002300E0F7
:100A9000DB1E012606FA05F1491E214099409E40C1
:100AA000761E16403143F0BC01F06FBB0CED00E048
:100AB000064900F0070208684FF6FF03184040EAB5
:100AC0000220034A10430860704700000CED00E06C
:100AD0000000FA052DE9F0470E46050065D0DFF865
:100AE0001481D8F80000F7B200F00700B04207D236
:100AF00088F80070D8F8000000F00700B04254D128
:100B000028683D4C810712D5400703D5206840F482
:100B1000E05020602878000703D5206840F460404A
:100B200020602068A96820F0F00008432060287841
:100B3000C0072DD0304968680839012812D0022832
:100B400013D0032811D00968890700292DDA2168FC
:100B500021F0030101432160FFF718FF814641F2B4
:100B6000883A0EE009688903EFE709688901ECE734
:100B7000FFF70CFFA0EB0901514502D90320BDE8A6
:100B8000F0872068696800F00C00B0EB810FEFD1AE
:100B9000D8F80010404601F00701B14207D90770AC
:100BA000006800F00700B04201D00120E7E7287894
:100BB000400705D52068E96820F4E050084320602C
:100BC0002878000706D52068296920F4604040EAAB
:100BD000C100206000F038F82168084AC1F3031111
:100BE000515CC8400649086006480068FFF7F6FEF9
:100BF0000020C4E7003C024008380240B43B000833
:100C0000240000201C0000200448054900680968F1
:100C1000044AC1F38221515CC8407047240000207F
:100C200008380240C43B00080448054900680968C8
:100C3000044AC1F34231515CC8407047240000208F
:100C400008380240C43B0008154810B5006810F091
:100C50000C02144813D01449042A0FD0082A0ED1CC
:100C60000F4C241F2268236802F03F025B0207D565
:100C70002068C0F38810A0FB010106E0084610BD03
:100C80002168C1F38811A1FB00010023FFF74CFB91
:100C90002168C1F30141491C4900B0FBF1F010BDCE
:100CA000083802400024F40040787D012DE9F84F17
:100CB00004006ED02078DFF84C93C007A9F104053A
:100CC0004AD009F104000168C1F38101012908D06B
:100CD0000068C0F3810002280AD1D9F80000400260
:100CE00006D52868800337D560680028E1D033E056
:100CF0006068B0F5803F10D0B0F5A02F286810D004
:100D000020F480302860286820F480202860606803
:100D1000A8B1FFF73BFE06460DE0286840F480309E
:100D2000F4E740F480202860F7E700BFFFF72EFECD
:100D3000801B642873D828688003F7D50CE0FFF780
:100D400025FE064605E000BFFFF720FE801B642855
:100D5000F0D828688003F7D42078DFF8AC828007C9
:100D60004FF0000A3ED5A748001D016811F00C0F96
:100D700008D00068C0F3810002280BD1D9F8000028
:100D8000400207D42868800716D5E068012800D102
:100D900012E033E1E068B8B10120C8F80000FFF7C5
:100DA000F5FD064605E000BFFFF7F0FD801B0228B9
:100DB000C0D828688007F7D52868216920F0F80096
:100DC00040EAC10028600DE0C8F800A0FFF7DEFD92
:100DD000064604E0FFF7DAFD801B02281FD82868CA
:100DE0008007F7D42078000722D5864F87486169AD
:100DF000703771B101210160FFF7C8FD064604E0BC
:100E0000FFF7C4FD801B022809D838688007F7D592
:100E10000EE0C0F800A0FFF7B9FD064605E082E04D
:100E2000FFF7B4FD801B02287DD838688007F7D40F
:100E30002078400768D5DFF8CCB100270BF13C0BD8
:100E4000DBF80000C0000BD4DBF8001041F080514B
:100E5000CBF80010DBF80000012700F08050009074
:100E60006B4E3068C00510D4306840F4807030603C
:100E7000FFF78CFD009005E0FFF788FD0099401A10
:100E8000022850D83068C005F6D55E4EA0686C3692
:100E900001280FD00528306810D020F00100306004
:100EA000306820F004003060A068B8B1FFF76EFD34
:100EB00000900FE0306840F00100F4E740F00400DB
:100EC0003060F7E7FFF762FD0099411A41F2883080
:100ED000814266D830688007F4D50EE0FFF756FDF2
:100EE000009007E0FFF752FD0099411A41F2883067
:100EF000814256D830688007F4D42FB1DBF8001057
:100F000021F08051CBF80010A069C8B33D49091DFC
:100F10000968C1F3810102294AD00228504607D04E
:100F2000C8F8600000E03CE0FFF730FD04463BE01D
:100F30004746C8F86000FFF729FD064605E000BFF8
:100F4000FFF724FD801B02282BD828688001F7D4E6
:100F5000D4E907010843A16A2E4A490802EB01417E
:100F6000626A41EA8211084394F82C1040EA016158
:100F7000C9F8001001203866FFF708FD044606E0B6
:100F80003EE000BFFFF702FD001B022809D82868D9
:100F90008001F7D534E000BFFFF7F8FC001B022802
:100FA00002D90320BDE8F88F28688001F4D427E037
:100FB0000128F7D0D9F80000E26900F480019142DD
:100FC0001CD1226A00F03F01914217D147F6C0714F
:100FD000626A0140B1EB821F10D1A26A4FF0FF3369
:100FE00000F4403103EB5202B1EB024F06D194F80A
:100FF0002C1000F07060B0EB016F01D00120D1E740
:101000000020CFE70438024000004742800E4742EC
:10101000007000400000FFFF10B5401EB0F1807F5F
:1010200001D3012010BD4FF0E02460610F21601753
:1010300001F0ABF80020A06107202061002010BD66
:1010400010B590F83C20012A22D0012280F83C20E3
:10105000CA688C6822F4407222434C6822F4806291
:1010600022430C6822F4006222430C6922F480526D
:1010700022434C6922F400522243C969002322F41E
:1010800080420A4301684A6480F83C30002010BD69
:10109000022010BD70B590F83C20012A32D0012406
:1010A00080F83C40022280F83D2003685A689D6821
:1010B00022F070060A6832435A60134B02689A4263
:1010C00014D0B2F1804F11D0104B9A420ED0104B79
:1010D0009A420BD00F4B9A4208D00F4B9A4205D040
:1010E0000E4B9A4202D00E4B9A4204D1496825F029
:1010F00080031943916080F83D40002180F83C1046
:10110000084670BD022070BD000001400004004090
:1011100000080040000C0040000401400040014075
:101120000018004030B587B0044614216846FFF728
:10113000BFF92468174D0021174802220123AC4251
:1011400011D1046844F010040460006800F010003D
:1011500005904FF4D4400090CDE90121CDE903136F
:1011600069460E4812E0B4F1804F11D1046844F092
:1011700001040460006800F0010005900320009065
:10118000CDE90121CDE9031369460548FFF7F4FADB
:1011900007B030BD0000014030380240001002406E
:1011A0000000024070B5044690F83C0000260D4651
:1011B00001280FD0012084F83C006AB1042A1DD018
:1011C000082A2FD00C2A3FD00126002084F83C00AA
:1011D000304670BD022070BD206800F0A3FD20687D
:1011E000816941F0080181612068816921F0040171
:1011F0008161206881692A69114311E0206800F04B
:10120000C1FD2068816941F40061816120688169C4
:1012100021F480618161206881692A6941EA0221A3
:101220008161D2E7206800F0E3FD2068C16941F0E8
:101230000801C1612068C16921F00401C161206811
:10124000C1692A69114311E0206800F005FE206899
:10125000C16941F40061C1612068C16921F4806104
:10126000C1612068C1692A6941EA0221C161ACE714
:1012700010B5040003D094F83D0010B107E0012040
:1012800010BD002084F83C00204600F01FF802202A
:1012900084F83D00211D206800F0CAFC012084F87C
:1012A000460084F83E0084F83F0084F8400084F84B
:1012B000410084F8420084F8430084F8440084F834
:1012C000450084F83D00002010BD000008B500680E
:1012D0000949884201D1094804E0B0F1804F09D1A1
:1012E0000648001F016841F001010160006800F03C
:1012F0000100009008BD0000000001404438024099
:1013000010B50446022249B104290ED0082913D091
:1013100094F84100012816D0012010BD94F83E0039
:101320000128F9D184F83E200FE094F83F0001280D
:10133000F2D184F83F2008E094F840000128EBD176
:1013400084F8402001E084F841200122206800F068
:10135000DBFC16492068164A884201D0904203D12E
:10136000436C43F4004343642068884213D0B0F1D7
:10137000804F10D00F4988420DD00F4988420AD0C3
:101380000E49884207D0904205D00D49884202D0CC
:101390000C49884204D1816801F00701062903D075
:1013A000016841F001010160002010BD0000014012
:1013B000000401400004004000080040000C004010
:1013C000004001400018004070477047F8B50168C0
:1013D00004460868CA684B6910F00F0F4FF000050B
:1013E00059D003F0010602F49077374365D0C10766
:1013F00005D0D10503D5616C41F00101616441075D
:1014000005D5D90703D0616C41F002016164810701
:1014100005D5D90703D0616C41F00401616401076F
:1014200007D502F02001314303D0616C41F008017F
:101430006164616C00293AD0800604D5900602D51B
:10144000204600F060FD20684069616CC0F38010A8
:10145000090700D460B3204600F02EFD20684069E3
:10146000400621D52068143050E8001F21F04001CB
:1014700040E80012002AF5D1E06BA8B16E49016581
:10148000E06BFFF766F9002811D0E06B016D01B049
:10149000BDE8F040084783060FD593060DD52046DA
:1014A000BDE8F84000F02FBD2046FFF78EFFF8BDE5
:1014B0002046FFF78AFF6564F8BD266B2023012EC6
:1014C0007DD1C6067BD5D60679D5086848680090D8
:1014D00048694FF00206400641D5E16B0868406854
:1014E0000004000CE8D0A28D8242E5D9E085C869ED
:1014F000B0F5807F2DD020680C3050E8001F21F41B
:10150000807140E80012002AF5D12068143050E8BC
:10151000001F21F0010140E80012002AF5D12068E7
:10152000143050E8001F21F0400140E80012002A6A
:10153000F5D184F84230256320680C3050E8001F54
:1015400021F0100140E80012002AF5D1E06BFFF70E
:10155000B7F86663A08DE18D401A81B22AE0A08DB4
:10156000E18D401A81B2E08D0028A5D00029A3D0DA
:1015700022680C3252E8000F20F4907042E8000715
:10158000002FF5D12068143050E8002F22F001021E
:1015900040E80027002FF5D184F842302563206809
:1015A0000C3050E8002F22F0100240E80023002BFE
:1015B000F5D166632046FFF707FFF8BDFFE7050694
:1015C0002BD5150629D594F841002128F5D1A0681E
:1015D000B0F5805F01D12069B0B1206A411C216261
:1015E000216800784860E08C401E0004000CE08414
:1015F000E3D12068C16821F08001C1602068C16822
:1016000041F04001C160D8E7206A0088C0F30800BB
:101610004860206A801C2062E5E74006CDD5500670
:10162000CBD5CA68204622F04002CA6084F8413017
:1016300000F0D3F8C1E70000A91E000870B504004F
:1016400004D094F84100002510B106E0012070BDDF
:1016500084F84050204600F023F8242084F841000C
:101660002068C16821F40051C160204600F0ACFC44
:101670002068016921F4904101612068416921F0ED
:101680002A0141612068C16841F40051C16065646C
:10169000202084F8410084F842006563002070BD7A
:1016A00010B586B0044614216846FEF701FF1849BC
:1016B0002068884229D117480021026842F01002B0
:1016C0000260006800F010000590124814380268AB
:1016D00042F001020260006800F0010005904FF442
:1016E000C06000900220CDE9010103200390072093
:1016F000049069460848FFF73FF80022052125209D
:10170000FFF7B6F92520FFF7A5F906B010BD0000D8
:1017100000100140443802400000024090F842307E
:10172000202B01D00220704721B11AB1002303639E
:1017300000F0D0BC0120704770472DE9F843044603
:1017400090F84100984616460D46202802D0022007
:10175000BDE8F88385B17EB100206064212084F863
:101760004100FFF713F9A6848146E684A06820278C
:10177000B0F5805F02D003E00120E9E7206910B1F5
:101780002E4600250EE000260CE08021204600F0C9
:10179000BCFCA8B9C6B116F8010B21684860E08C02
:1017A000401EE084E08C4B464FF00002CDF80080F4
:1017B0000028EAD14FF04001204600F0A6FC40B1DD
:1017C00084F841700320C3E735F8020BC0F308002A
:1017D000E3E784F841700020BAE77047FEE70000B5
:1017E00000251C4EDFF87090DFF870B01C4C4FF0F5
:1017F00001084FF4FA7A9627307801280AD0022897
:101800000AD0032811D0042811D02068476320682B
:101810008763F1E7C82000E06420216848635046F0
:1018200000F042FD2068476309E0642000E0C82022
:1018300021688863504600F037FD20688763504672
:10184000C9F8008000F030FD8BF80080C9F8005026
:101850003570D1E7A8000020B4000020AC000020C3
:10186000BC00002010B5154A0021154800F058FDB5
:10187000144C124A002120602432134800F050FD1D
:101880000E4A606048320021104800F049FD0B4AC2
:10189000A0606C3200210E4800F042FD074AE06073
:1018A000903200210B4800F03BFD044A2061B43225
:1018B0000021094800F034FD606110BDDC3A0008E9
:1018C0006D1B00080000002021060008E117000839
:1018D0003D1B000875060008492C00082DE9F04161
:1018E00086B014216846FEF7E3FD2C480024016809
:1018F00041F010010160016801F0100105910168DB
:1019000041F004010160016801F0040105910168E2
:1019100041F080010160016801F0800105910168DA
:1019200041F00101016000681D4F00F001000590C9
:10193000002233213846FFF724F8DFF868804FF49F
:101940006046002231464046FFF71BF80420009015
:101950004FF48810CDE9010469463846FEF70CFFC4
:10196000332000900125CDE901546946384603949F
:10197000FEF702FF0096CDE9015469464046039404
:10198000FEF7FAFEF020CDE900046946064802940D
:10199000FEF7F2FE06B0BDE8F081000030380240EC
:1019A00000100240000802400000024010B592B052
:1019B00000240F941C2168461094FEF779FD202125
:1019C00007A8FEF775FD2D482B49016040F28F6195
:1019D000C0E9011440F2CF71C0E90314446184618D
:1019E000FFF746FC08B1FEF769FE0F940FA92348E4
:1019F0001094FFF74FFB08B1FEF760FE6020CDE9C1
:101A000000040294039404940594002269461B4840
:101A10000694FFF7C7FB08B1FEF750FE04226946A3
:101A20001648FFF7BFFB08B1FEF748FE08226946DB
:101A30001248FFF7B7FB08B1FEF740FE0C226946DB
:101A40000E48FFF7AFFB08B1FEF738FE0794089485
:101A500009944FF400500A94CDE90B4007A90748B8
:101A60000E94FFF7EDFA08B1FEF728FE0348FFF7E2
:101A700059FB12B010BD000000000140BC00002066
:101A800010B58AB0002407941C2168460894FEF71C
:101A90000FFD19484FF08041C0E90014611EC0E9F4
:101AA000024104618461FFF7E3FB08B1FEF706FE23
:101AB000079407A910480894FFF7ECFA08B1FEF75D
:101AC000FDFD6020CDE900040294002269460A4829
:101AD0000494FFF767FB08B1FEF7F0FD04226946A6
:101AE0000548FFF75FFB08B1FEF7E8FD0248FFF786
:101AF00019FB0AB010BD0000040100200C4810B50D
:101B00000A4901600B494160002181600C22C160DB
:101B1000C0E904128161C161FFF790FD002803D084
:101B2000BDE81040FEF7CABD10BD00000010014026
:101B30004C01002060E31600FEE7FEE7094E962701
:101B4000094CC8254FF4FA7830780028206845639E
:101B5000404604D000F0A8FB20684763F4E700F09B
:101B6000A3FBF1E7A800002004010020012000F001
:101B70009BFBFBE710B5FEF70FFF01F0F3FD01281B
:101B800003D0BDE8104001F021BB10BD30B593B0CB
:101B900030216846FEF78CFC14210CA8FEF788FC67
:101BA0001D480025016841F080510160006800F087
:101BB000805011901948016841F48041016000682B
:101BC000022400F480401190012003901020049022
:101BD000009406940820CDE90750A820CDE9090417
:101BE00004200B906846FFF761F808B172B6FEE773
:101BF0000CA90F2081E831004FF4A0500F904FF452
:101C00008050109005210CA8FEF764FF002801D039
:101C100072B6FEE713B030BD40380240007000409D
:101C20000248016841F470010160704788ED00E0EE
:101C3000F0B50268294C2A4D2A4E2B4F2B4B4FF002
:101C4000804CA04209D0604507D0A84205D0B042E0
:101C500003D0B84201D0984204D122F0700E4A68F5
:101C600042EA0E02A0421BD0604519D0A84217D00C
:101C7000B04215D0B84213D0984211D01C4DA842A2
:101C80000ED01C4DA8420BD01B4DA84208D01B4DB6
:101C9000A84205D01A4DA84202D01A4DA84203D13D
:101CA00022F44075CA682A434D6922F080022A4313
:101CB00002608A68C2620A688262A04201D09842C9
:101CC00001D109690163012141610169C90703D09B
:101CD000016921F001010161F0BD00000000014037
:101CE0000004004000080040000C004000040140D7
:101CF00000400140004401400048014000180040FD
:101D0000001C00400020004010B501F01F0301211D
:101D1000046A99408C430462016A9A40114301624B
:101D200010BD0000F0B5036A026A22F001020262EF
:101D300042688469124E24F073050C682C4323F02A
:101D400002058B682B430D4DA84201D0B04205D14E
:101D500023F00807CB683B4323F00403A84201D0DB
:101D6000B04205D14D6922F4407215438A692A4375
:101D700042608461496841630362F0BD0000014034
:101D800000040140F0B5026A036A23F01003036205
:101D9000436884690D6824F4E64444EA05248D68A8
:101DA00022F0200242EA05120F4D104EA84201D047
:101DB000B04206D1CF6822F0800242EA071222F038
:101DC0004002A84201D0B04207D14D6923F44063DC
:101DD00043EA85038D6943EA85034360846149686A
:101DE00081630262F0BD0000000001400004014078
:101DF000F0B5026A036A23F4807303624368C4691E
:101E000022F4007224F073050C68124E2C438D6886
:101E100042EA05220E4DA84201D0B04206D1CF6859
:101E200022F4006242EA072222F48062A84201D032
:101E3000B04207D14D6923F4405343EA05138D693D
:101E400043EA05134360C4614968C1630262F0BD9F
:101E5000000001400004014030B5046A026A22F427
:101E6000805202624268C3690D6823F4E64343EA84
:101E700005238D6824F4005444EA0534084DA84233
:101E800002D0084DA84204D14D6922F4804242EAB2
:101E900085124260C36149680164046230BD00007C
:101EA000000001400004014010B5806B0021C18595
:101EB000C184FFF78AFA10BD01680C3151E8002F88
:101EC00022F4907241E80023002BF5D1016814310F
:101ED00051E8002F22F0010241E80023002BF5D148
:101EE000016B012909D101680C3151E8002F22F062
:101EF000100241E80023002BF5D1202180F8421088
:101F000000210163704708B590F84210222901D0E2
:101F1000022008BD82684FF480539A4201D10169C2
:101F200021B1816A9A421BD04AB10AE00268816AF3
:101F30005268C2F308020A80816A891C08E00269BB
:101F400072B10268526802F07F020A70816A491C0D
:101F50008162C18D491E0904090CC18503D01BE0B3
:101F600002685268F1E70168CA6822F02002CA607C
:101F70000168CA6822F48072CA6001684A6922F066
:101F800001024A61202180F8421000214163026B66
:101F9000012A03D0FFF7D0FB002008BD01630168D0
:101FA0000C3151E8002F22F0100241E80023002BF1
:101FB000F5D101680A68D20602D50A68496800911D
:101FC000818DFFF701FAE7E770B504460068016903
:101FD000E26821F44051114301612169A068E2697E
:101FE00008436169114308432168CA6849F20C63D8
:101FF0009A430243CA6020684169A26921F4407192
:102000001143416131492068884202D030498842F9
:1020100002D1FEF709FE01E0FEF7F6FDE2690023BA
:10202000192164253226B2F5004F626828D0A0FB42
:102030000101930F9200FEF777F90146B0FBF5F02E
:102040006FF01802504301EB800006EB0010B0FB6C
:10205000F5F000F0F002B1FBF5F002EB0012B1FB7D
:10206000F5F06FF01803584301EB800006EB001009
:10207000B0FBF5F000F00F0021681044886070BDDF
:10208000A0FB010192185B41FEF74EF90146B0FB3F
:10209000F5F00201B1FBF5F06FF01803584301EBC6
:1020A000800006EBC000B0FBF5F000F0F80002EB9A
:1020B0004002B1FBF5F0584301EB800006EBC00095
:1020C000B0FBF5F000F00700D6E70000001001407B
:1020D0000014014081628285C28500214164222171
:1020E00080F84210016921B10168CA6842F4807227
:1020F000CA6001684A6942F001024A610068C16829
:1021000041F02001C160002070472DE9F843984656
:1021100017460D460446089E24E0701C22D0FEF7A8
:1021200035FCA0EB0800B0421AD8CEB12068C168D7
:10213000490717D5802D15D0402D13D00168C9430C
:1021400009070FD401680025406800902046FFF77A
:10215000B3FE0820606484F840500120BDE8F88395
:102160000320FBE72068006835EA000004D0002067
:10217000B842D2D00020F1E70120F9E70148FFF78B
:1021800025B900004C010020FEE70907090E0028D0
:1021900004DB00F1E02080F80014704700F00F002D
:1021A00000F1E02080F8141D7047000010B50A4CC3
:1021B000002204212046FEF7E4FB002201212046F4
:1021C000FEF7DFFB02212046FEF7D3FBBDE81040FF
:1021D0004FF4FA7000F01EB80010024010B5002253
:1021E0004FF400410948FEF7CCFB094C00221021B6
:1021F0002046FEF7C6FB20212046FEF7BAFBBDE8CD
:1022000010404FF4FA7000F005B8000000080240DA
:102210000010024003E00921491E89B2FCD2401E91
:1022200080B2F8D270470000FEF7BEFBFFF7AEFCAD
:10223000FFF754FBFFF7BAFBFFF760FCFFF720FC4A
:10224000052215491548FFF769FA00211448FFF7E0
:1022500057F804211248FFF753F808211048FFF7F8
:102260004FF800210F48FFF74BF804210D48FFF706
:1022700047F80B489B2102685163006896218163EF
:102280000849C8200968486300F01CF8FFF7EAFA1B
:1022900000F02AF8FEE70000A80000204C01002012
:1022A000BC0000200401002010B5EFF3058111B13E
:1022B0006FF0050403E0002408B100F027FE20467B
:1022C00010BD0000EFF3058010B16FF005007047FE
:1022D0000448016811B14FF0FF30704701210160DF
:1022E000002070477800002010B5EFF3058010B192
:1022F0006FF0050010BD08480168012902D04FF0B9
:10230000FF3010BD054A002182F8141D0221016032
:1023100000F064FE002010BD780000200BE000E01B
:102320002DE9FF414FEA01034FF00005EFF305816E
:10233000039549BB40B38027182100244AB316688F
:1023400006B1344696691EB13146761E382E02D249
:102350001679F60703D0002004B0BDE8F081566975
:1023600006B1B708D2F808C0BCF1000F0DD0D5688F
:102370005C2D18D312693AB136B18DE806103A4691
:10238000214601F0C4F903900DE0D6685EB91269E8
:102390004AB903AACDE90012BAB2214601F08AF97E
:1023A000012800D003950398D6E700002DE9F041FD
:1023B000134C0F460546E6682068001D00F072FCCD
:1023C000681C07D137B12168BDE8F0410D48091DEF
:1023D00000F0B8BC20683544B5424560216805D29C
:1023E000A06BBDE8F041091D00F094BC606B091DB5
:1023F00000F090FCA06A854200D2A562BDE8F081A1
:1024000028000020840600202DE9F041054600F058
:10241000A5FC2D4CA068401CA06020682B4F10B17B
:10242000606930B32BE02560A068012827D1002621
:1024300006EB860007EB800000F05EFC761C382E71
:10244000F6D3234800F058FC2148143000F054FC27
:102450001F48283000F050FC1D483C3000F04CFC78
:102460001B48503000F048FC194860631430A063EA
:1024700005E02068E96AC06A884200D82560606A81
:10248000401C60626864E86A2169884200D9206162
:1024900000EB800007EB8000291D00F053FC00F0EA
:1024A0007DFC606900280CD02068E96AC06A884217
:1024B00007D208494FF080500860BFF34F8FBFF339
:1024C0006F8FBDE8F081000028000020D4010020BB
:1024D0003406002004ED00E038B500F03FFC104C5D
:1024E0002068C8B90F4800F007FC0E48143000F00F
:1024F00003FC0C48E060143020610A4B0020F03BE4
:10250000009003F1500210210A2000F075FE2060B7
:1025100010B105A100F0C4FCBDE8384000F03EBC9D
:102520006400002088070020546D725100000000F4
:1025300030B4026C0B46002A0BD0C1681144C16054
:102540008468A14201D30168C16030BC1846FDF720
:1025500062BF30BC70472DE9F041856B17460446D9
:102560000026026C82B1C7B1E068FDF754FFE16854
:10257000206C091AE1602268914202D2A168081A0F
:10258000E060022F16D017E02068A8B9A06801F01B
:1025900061F906460020A0600EE06068FDF73BFF91
:1025A000216C606808446060A168884204D3206898
:1025B000606001E005B16D1E6D1CA5633046BDE88D
:1025C000F08110B5044690F8590058B101280CD09C
:1025D00002280FD0502080F31188BFF34F8FBFF334
:1025E0006F8FFEE7206B00F0EDFB2046BDE810404A
:1025F00000F0E8BB10BD000010484FF470514207D6
:1026000006D0C01D0D4920F00700411AC1F57051D8
:102610000B4A00230144C2E900030839183A21F0AB
:10262000070111604B600B600B1AC0E90013936047
:102630004FF000405360506170470000680E00206A
:1026400094000020144E154CA6F29C474FF0805881
:10265000DFF84C9012E000BF00F080FBF068C56826
:10266000281D00F01FFBA068401EA0606068401E8F
:10267000606000F093FB2846FFF7A3FF6068002826
:10268000EAD138680128F9D9C9F80080BFF34F8F23
:10269000BFF36F8FF2E700007006002028000020D3
:1026A00004ED00E070B51D46049C51B1C4F8002053
:1026B000C4E90F010121204600F0D2FD84F84C50FE
:1026C00070BD2460F4E700002DE9F05F8846DDE985
:1026D0000B941546834691009A460A9EA522206BCC
:1026E000FDF7DEFE6FF00301206B01EB850108446E
:1026F00020F00707780707D0502080F31188BFF338
:102700004F8FBFF36F8FFEE70025B8F1000F0FD09A
:102710005FF00000221818F8001082F8341018F842
:10272000001011B1401C1028F4D384F8435001E08C
:1027300084F83450382E00D33726E662C4E9136596
:10274000201D00F0E4FA04F1180000F0E0FA246122
:10275000C6F138006462A061656584F8585052463D
:102760005946384600F05AFA2060B9F1000F01D0FE
:10277000C9F80040BDE8F09F30B5114900E01146AE
:102780000A688242FBD34B685C18844203D14068DC
:1027900018444860084643681C18944209D1084C04
:1027A000183C2468A24209D052681A4442600A6860
:1027B00012680260814200D0086030BD0460F9E711
:1027C0009400002070B5002441600B4D00619142DF
:1027D00006D8D11A8269914206D2011D286907E004
:1027E0009A4203D2994201D3012403E0011DE86813
:1027F00000F090FA204670BD6400002010B5044639
:1028000000F0ACFAA06B28B15FF0000400F0C6FA4B
:10281000204610BD0124F9E730B589B03C4D6EE08B
:102820000498002806DADDE90601059A9047049825
:10283000002864DB069C606910B1201D00F032FAAC
:1028400003A800F0D7F8024604980A2857D2DFE818
:1028500000F00505052D334A05052D3394F82800B1
:1028600040F0010084F828000599A069059B014407
:102870002046FFF7A7FF68B3216A2046884794F8EF
:10288000280040073BD5002000900598A16900234F
:1028900042181946204601F0E7F8D8B9502080F3D5
:1028A0001188BFF34F8FBFF36F8FFEE714F8280F27
:1028B00020F00100207022E094F8280040F0010090
:1028C00084F828000598A06128B181181346204695
:1028D000FFF778FF13E0502080F31188BFF34F8F8C
:1028E000BFF36F8FFEE794F82800810703D42046DA
:1028F00000F068FA03E020F0010084F828000022CC
:1029000004A9286800F000FE002889D109B030BD74
:10291000640000202DE9FC410F46054600F0A2FBB3
:1029200001A800F067F80446019818B101F00AF810
:10293000BDE8FC81254EAFB130690068D0B30027F7
:10294000291B3A46306800F0BFFA00F0FBFF002870
:10295000EED11F494FF080500860BFF34F8FBFF397
:102960006F8FE5E7A542EBD800F0ECFFF068274653
:10297000C068C468201D00F095F994F8280041074C
:1029800019D5A0692B4641193A462046FFF71AFF90
:10299000A8B100200346014600902A46204601F0D7
:1029A00063F860B9502080F31188BFF34F8FBFF3F5
:1029B0006F8FFEE707E020F0010084F82800216A0D
:1029C00020468847B4E70127BAE7000064000020EA
:1029D00004ED00E00648416B096829B1416BC96804
:1029E000C9684968816270474FF0FF31FAE700001B
:1029F0002800002070B5054600F0C2FE064E0446D1
:102A0000B068844203D200F009F8012000E0002001
:102A100028602046B46070BD64000020F8B5194DF0
:102A200020E0C068C4680668201D00F03BF9216AF8
:102A30002046884794F82800400713D5A069304401
:102A4000B04206D924616060211DE86800F062F997
:102A500008E000200346014600903246204601F07F
:102A600003F838B1E86801680029DAD12969C5E9B5
:102A70000310F8BD502080F31188BFF34F8FBFF3D0
:102A80006F8FFEE76400002008484068401C4FF04C
:102A9000500080F3118804D0BFF34F8FBFF36F8FC6
:102AA000FEE7BFF34F8FBFF36F8FFEE79C00002060
:102AB000074CE068016841B1C0680021D0F800000F
:102AC000FFF728FFFFF7A8FEF3E701210020F7E753
:102AD000640000202DE9F041044600F03FF994F92C
:102AE000455004F1240609E0606A48B1304600F020
:102AF000F1FE08B100F038FA6D1E6DB2002DF3DC66
:102B00004FF0FF3684F8456000F048F900F026F9F0
:102B100094F9445004F1100709E0206948B138469F
:102B200000F0D8FE08B100F01FFA6D1E6DB2002D46
:102B3000F3DC84F84460BDE8F04100F02FB90000F8
:102B40002DE9F0410546002700F08CFA324E30683E
:102B500008B9FFF751FD706905424ED1C5B308357C
:102B600068070ED005F00700C0F1080005446807AB
:102B700007D0502080F31188BFF34F8FBFF36F8FC2
:102B8000FEE72DB37068854237D8234818300146D8
:102B90000C6801E020460C466168A94202D2216817
:102BA0000029F7D131688C4227D00768216801607D
:102BB00060680837411B10290FD96019420708D0F7
:102BC000502080F31188BFF34F8FBFF36F8FFEE764
:102BD00013E041606560FFF7CFFD61687068401ADF
:102BE0007060B268904200D2B0607069014300200A
:102BF000C4E90001F068401CF06000F0A3FE780713
:102C000007D0502080F31188BFF34F8FBFF36F8F31
:102C1000FEE73846BDE8F0817C00002010B5031FB8
:102C20004FF080741C601B1F21F001011960191FF7
:102C3000044B0B6014390A60091F6FF0020244381C
:102C40000A6010BD892A00080226134D134C032781
:102C50004FF004084FF005094FF0000A207880B1CA
:102C6000617881B1A17881B1E17889B10128F5D18C
:102C70006423052208490A48FEF75FFD84F800A096
:102C8000ECE76E70EAE7AF70E8E785F80280E5E709
:102C900085F80290E2E70000AC000020B8000020B8
:102CA0004C010020D0E9013201699A60D0E901238A
:102CB0005A604A68824201D182684A6000220261F9
:102CC0000868401E0860086870470000034B0360F6
:102CD00003F15C000860802010607047B00700209E
:102CE000044B036003F15C0008604FF480701060D7
:102CF000704700000C0A002000F108014FF0FF327D
:102D0000C0E90112C160016100210160704700212A
:102D10000161704730B50B685A1C02D000F10802FF
:102D200002E0026904E02246546825689D42FAD90F
:102D300053684B6099608A60516008610168491C62
:102D4000016030BD42684A6093688B609368596047
:102D5000916008610168491C01607047502080F350
:102D60001188BFF34F8FBFF36F8F0A494868401C2B
:102D7000486001280CD10848006810F0FF0F07D008
:102D8000502080F31188BFF34F8FBFF36F8FFEE7A2
:102D9000704700009C00002004ED00E008494868EE
:102DA00028B1401E486001D180F31188704750203F
:102DB00080F31188BFF34F8FBFF36F8FFEE70000E2
:102DC0009C00002070B500282AD0164DA0F1080400
:102DD00060686969084207D1502080F31188BFF309
:102DE0004F8FBFF36F8FFEE722683AB1502080F318
:102DF0001188BFF34F8FBFF36F8FFEE7884360608A
:102E000000F030F960686968084468602046FFF7A0
:102E1000B3FC2869401C2861BDE8704000F092BDF9
:102E200070BD00007C0000204FF0E0200021016117
:102E3000816105494FF47A720968B1FBF2F1491ECC
:102E400041610721016170472400002010B5FDF7A2
:102E500047FA114910280ED300F1E02090F8F00352
:102E60000A78904207D2502080F31188BFF34F8F29
:102E7000BFF36F8FFEE709480068896800F4E060DF
:102E8000884207D9502080F31188BFF34F8FBFF3DA
:102E90006F8FFEE710BD00009C0000200CED00E0ED
:102EA00010B5084B002200BF53F832401CB1521C31
:102EB000082AF9D310BD43F8321003EBC201486071
:102EC00010BD00009401002070B515460E46044662
:102ED000FFF744FF94F944100020491C01D184F805
:102EE000440094F94510491C01D184F84500FFF7CE
:102EF00055FFA06B28B92A46314604F1240000F0A2
:102F000051F82046BDE87040FFF7E4BD10B502005F
:102F100014D00F48006B38B1502080F31188BFF3F4
:102F20004F8FBFF36F8FFEE700F09CF80021104633
:102F3000FFF73CFA00F006FD002807D105494FF0E5
:102F400080500860BFF34F8FBFF36F8F10BD00003C
:102F50002800002004ED00E002490A6A0260C96806
:102F6000416070472800002001490120C861704776
:102F70002800002010B50C4650B1094909681831E5
:102F8000FFF7C8FE2046BDE810400121FFF70EBA4A
:102F9000502080F31188BFF34F8FBFF36F8FFEE790
:102FA0002800002070B514460D4668B10A4909682A
:102FB0001831FFF7C7FE0CB14FF0FF352146284608
:102FC000BDE87040FFF7F2B9502080F31188BFF3DD
:102FD0004F8FBFF36F8FFEE72800002030B587B01A
:102FE0000024039405AA04A903A80494FFF76EFE25
:102FF000DDE903010094CDE90110002315A1174874
:10300000059A00F084FB164D0028E8621FD000F0FE
:10301000FBFC012809D0401C19D1502080F31188F5
:10302000BFF34F8FBFF36F8FFEE7502080F31188FF
:10303000BFF34F8FBFF36F8F4FF0FF30A8620120B7
:103040006861EC6007B0BDE8304000F045B807B0FB
:1030500030BD000049444C450000000045260008F2
:10306000280000200248016B491C016370470000E2
:1030700028000020164810B5016B11B10121C16173
:1030800010BD0021C1610169124A01E0B9B1491EB8
:1030900001EB810352F82330002BF7D001EB8103C1
:1030A00002EB830202F1080453685B685360A34299
:1030B00001D15B685360DA680260016110BD502085
:1030C00080F31188BFF34F8FBFF36F8FFEE70000CF
:1030D00028000020D40100201CB537480168374A79
:1030E000914207D1502080F31188BFF34F8FBFF377
:1030F0006F8FFEE700683149491E884207D1502092
:1031000080F31188BFF34F8FBFF36F8FFEE72C4919
:1031100008780190FF20087008788DF800009DF86D
:1031200000009DF8002000F0F000904207D05020F1
:1031300080F31188BFF34F8FBFF36F8FFEE79DF8C9
:103140000000204C00F0500020700720A06005E037
:103150009DF8002052008DF80020401E9DF80020B0
:103160001206F5D4A060032807D0502080F3118800
:10317000BFF34F8FBFF36F8FFEE74FF44070A06037
:10318000019808700C482030016841F4700101601A
:10319000016841F070410160FFF746FE0020606069
:1031A000FDF766F80848016841F040410160FDF70D
:1031B0004BF800201CBD000000ED00E071C20F4183
:1031C00000E400E09C00002034EF00E010B5502047
:1031D00080F31188BFF34F8FBFF36F8F00F0D6FAE3
:1031E00018B104494FF080500860002080F3118826
:1031F00010BD000004ED00E038B5049D18B153B1D6
:10320000CAB181B120E0502080F31188BFF34F8F05
:10321000BFF36F8FFEE7502080F31188BFF34F8F0D
:10322000BFF36F8FFEE7502080F31188BFF34F8FFD
:10323000BFF36F8FFEE739B1502080F31188BFF3E1
:103240004F8FBFF36F8FFEE750241C46012384F895
:1032500046302B460094FFF725FA204638BD000083
:1032600070B50D46040025D0FFF778FDD4E90F2096
:10327000216802FB0011A1600021A1632168616047
:103280000A46D4E90F01401E00FB0121E1602146FE
:103290004FF0FF3001F8440F487004F110008DB179
:1032A000FFF72AFD04F12400FFF726FDFFF776FD66
:1032B000012070BD502080F31188BFF34F8FBFF302
:1032C0006F8FFEE721690029F0D000F003FB002892
:1032D000ECD004494FF080500860BFF34F8FBFF32C
:1032E0006F8FE3E704ED00E02DE9FF4782B01D4654
:1032F0008A464FF00008040003D0BAF1000F08D04E
:1033000011E0502080F31188BFF34F8FBFF36F8F10
:10331000FEE7206C38B1502080F31188BFF34F8F47
:10332000BFF36F8FFEE7022D0AD1E06B012807D0B3
:10333000502080F31188BFF34F8FBFF36F8FFEE7EC
:1033400000F010FA3F4F4FF000094FF0805648B997
:10335000049838B1502080F31188BFF34F8FBFF32A
:103360006F8FFEE7FFF7FAFCA06BE16B884207D393
:10337000022D05D00498D0B1B8F1000F1AD01EE08C
:103380002A4651462046FFF7E6F8616A19B104F172
:10339000240000F09FFA20B13E60BFF34F8FBFF3CF
:1033A0006F8FFFF7FBFC012006B0BDE8F087FFF749
:1033B000F5FC22E06846FFF7CFFD4FF00108FFF76C
:1033C000EDFCFFF74FFEFFF7C9FC94F94400401CE9
:1033D00001D184F8449094F94500401C01D184F84F
:1033E0004590FFF7DBFC04A9684600F029F930B1ED
:1033F0002046FFF76FFB00F0A5FA0020D4E7FFF7A7
:10340000ADFCA06BE16B884213D1FFF7C7FC04F160
:1034100010000499FFF7AEFD2046FFF75BFB00F0BC
:1034200091FA00289ED13E60BFF34F8FBFF36F8F9C
:1034300098E7FFF7B3FC2046FFF74CFB00F082FA59
:1034400090E7000004ED00E02DE9F0471F469046AC
:103450008946040003D0B9F1000F08D011E05020D4
:1034600080F31188BFF34F8FBFF36F8FFEE7206C9F
:1034700038B1502080F31188BFF34F8FBFF36F8FA7
:10348000FEE7022F0AD1E06B012807D0502080F31D
:103490001188BFF34F8FBFF36F8FFEE7FFF7D6FCA6
:1034A0005020EFF3118680F31188BFF34F8FBFF3E5
:1034B0006F8FA06BE16B884206D3022F04D00020EF
:1034C00086F31188BDE8F08794F94550A06B3A4621
:1034D00049462046FFF73FF8681C04D06D1C84F86D
:1034E00045500120ECE7606A0028FAD004F124007E
:1034F00000F0F0F90028F4D0B8F1000FF1D001216C
:10350000C8F80010EDE700002DE9F747002683B06A
:103510008A46040003D0BAF1000F08D011E0502011
:1035200080F31188BFF34F8FBFF36F8FFEE7206CDE
:1035300038B1502080F31188BFF34F8FBFF36F8FE6
:10354000FEE700F00FF9DFF8F4804FF000094FF0CC
:10355000805748B9059838B1502080F31188BFF3DF
:103560004F8FBFF36F8FFEE7FFF7F8FBA56BC5B179
:1035700051462046FEF7DCFF6D1EA563206950B161
:1035800004F1100000F0A6F928B1C8F80070BFF3EC
:103590004F8FBFF36F8FFFF701FC012006B0BDE82E
:1035A000F087059808B11EB106E0FFF7F7FB27E0AA
:1035B0006846FFF7D1FC0126FFF7F0FBFFF752FD4D
:1035C000FFF7CCFB94F94400401C01D184F84490EF
:1035D00094F94500401C01D184F84590FFF7DEFBCB
:1035E00005A9684600F02CF8002820460AD0FFF70D
:1035F00071FA00F0A7F92046FFF700F90028B3D0D0
:103600000020CBE7FFF7FAF890B104F12400059908
:10361000FFF7B0FC2046FFF75DFA00F093F90028B1
:10362000A2D1C8F80070BFF34F8FBFF36F8F9BE735
:103630002046FFF74FFA00F085F995E704ED00E02A
:103640002DE9F0410C46050011D0C4B1FFF786FB0F
:10365000174BDA686E682068911B471C17D02F68DB
:103660001B6A9F4219D0964217D8012410E05020BF
:1036700080F31188BFF34F8FBFF36F8FFEE75020A9
:1036800080F31188BFF34F8FBFF36F8FFEE70024E5
:10369000FFF784FB2046BDE8F081884205D9401A37
:1036A00020602846FFF758FCF1E700202060DCE7A7
:1036B000280000202DE9FF5F8346DDE90E8799464B
:1036C00016468A469000FFF73BFA05001CD05C20A6
:1036D000FFF736FA040014D00020256384F859005F
:1036E000CDE90240CDE900874B4632465146584667
:1036F000FEF7EAFF2046FEF787FE012004B0BDE892
:10370000F09F2846FFF75EFB4FF0FF30F6E7F0B57D
:1037100085B0DDE90B640A9DA6B1DCB15C2700979A
:103720002663022684F85960002604AFCDE90246DC
:10373000CDE90057FEF7C8FF2046FEF765FE049866
:1037400005B0F0BD502080F31188BFF34F8FBFF359
:103750006F8FFEE7502080F31188BFF34F8FBFF3C8
:103760006F8FFEE70548416919B1006B18B1002061
:103770007047012070470220704700002800002099
:103780000148C06870470000280000202DE9F04182
:103790002E4C0027206B28B1A069401CA061384640
:1037A000BDE8F081E668761CE66013D1606B0068C6
:1037B00038B1502080F31188BFF34F8FBFF36F8F64
:1037C000FEE7606BA16B6163A063206A401C20620E
:1037D000FFF700F9A06ADFF87880864209D3606BB2
:1037E0000068A0B1606BC068C5686868864211D285
:1037F000A0622068C06A00EB800158F8210001280F
:1038000000D90127E0690028C9D00127C7E74FF098
:10381000FF30EDE7281DFFF745FAA86A18B105F15A
:103820001800FFF73FFAE86A2169884200D9206151
:1038300000EB800108EB8100291DFFF783FAE86A9D
:103840002168C96A8842CAD30127C8E72800002036
:10385000D401002070B504004FF0000133D01B4D9F
:103860002868844207D0502080F31188BFF34F8F1F
:10387000BFF36F8FFEE7206D38B1401E2065E36C0B
:10388000E26A9A421FD040B11DE0502080F31188B7
:10389000BFF34F8FBFF36F8FFEE7201DFFF702FAD4
:1038A000E06CE062C0F13800A061E06A29698842FA
:1038B00000D92861064900EB800001EB8000211D42
:1038C000FFF740FA0121084670BD000028000020E3
:1038D000D401002070B5C068C46854B104F1180068
:1038E0000646FFF7DFF9144D286B50B131461348F7
:1038F00015E0502080F31188BFF34F8FBFF36F8F17
:10390000FEE7201DFFF7CEF9E06A2969884200D959
:1039100028610B4900EB800001EB8000211DFFF7BF
:1039200011FAE06A2968C96A884202D90120E8616F
:1039300070BD002070BD0000280000205C06002043
:10394000D40100202DE9F0472C4D00242746286B98
:1039500038B1FFF703FA286B401E2863286B40B18B
:1039600046E0502080F31188BFF34F8FBFF36F8F75
:10397000FEE7A968224E0120D1B3A6F591698046E1
:103980003068E0B1F068C46804F11800FFF78AF904
:10399000201DFFF787F9E06A2969884200D928616C
:1039A00000EB800109EB8100211DFFF7CBF9E06AF4
:1039B0002968C96A8842E3D3C5F81C80E0E70CB1E6
:1039C000FFF708F8AC694CB14FEA0806FFF7DEFED6
:1039D00000B1EE61641EF9D10020A861E86938B138
:1039E0000849012738070860BFF34F8FBFF36F8F77
:1039F000FFF7D4F93846BDE8F08700002800002022
:103A00005C06002004ED00E010B586B0FEF764FD12
:103A1000114C2068B8B100200390049005AA04A9B5
:103A200003A8FFF75DF9DDE9032102208DE8070017
:103A300000230AA10B48059AFFF769FE606010B1E8
:103A400006B0012010BD502080F31188BFF34F8FC6
:103A5000BFF36F8FFEE7000064000020546D7220FA
:103A600053766300B12A00082DE9FF411E46134634
:103A700002000A9D4FF0000016D0144C2768002F5A
:103A80000FD0CDE900130292062917DAFFF76AFE7C
:103A900002284FF000030FD0002269462068FFF78C
:103AA00023FC04B0BDE8F081502080F31188BFF3FF
:103AB0004F8FBFF36F8FFEE72A46EEE700233246B3
:103AC00069463846FFF7C0FCEBE7000064000020C1
:103AD0004FF04070E1EE100A70470000083C00080B
:103AE00000000000000000000000000000000000D6
:103AF00000020000180000000000000000000000AC
:103B0000F83B00080000000000000000000000007A
:103B100000000000000200001B0000000000000088
:103B200000000000143C000800000000000000003D
:103B30000000000000000000000200001C00000067
:103B40000000000000000000CC3B00080000000066
:103B50000000000000000000000000000002000063
:103B60001D0000000000000000000000EC3B000809
:103B70000000000000000000000000000000000045
:103B8000000200001E000000000000000000000015
:103B9000DC3B000800000000000000000000000006
:103BA00000000000000200001E00000000000000F5
:103BB00000000000000000000000000001020304FB
:103BC00006070809000000000102030450616E6549
:103BD0006C5F446A5F5461736B00000074725F46EF
:103BE000756C6C5F5461736B000000004472705F11
:103BF0005461736B00000000436F6E7665796F72DD
:103C00005F5461736B00000064656661756C745489
:103C100061736B00496E766572745F7461736B00DB
:103C2000403C000800000020BC000000C401000867
:103C3000FC3C0008BC0000200C500000E001000823
:103C40000000000000000000000000000000000074
:103C50000000000000000000010000001000000053
:103C6000000000000024F40000000000000000003C
:103C70000000000000000000000000000000000044
:103C80000000000000000000000000000000000034
:103C90000000000000000000000000000000000024
:103CA0000000000000000000000000000000000014
:103CB0000000000000000000000000000000000004
:103CC00000000000000000000000000000000000F4
:103CD00000000000000000000000000000000000E4
:103CE000AAAAAAAA0000000000000000000000002C
:0C3CF000000000000000000001000000C7
:040000050800018965
:00000001FF
