:020000040800F2
:1000000008070020290200081B170008191600081D
:100010001917000883040008D51800080000000024
:100020000000000000000000000000001F17000892
:100030009D040008000000001D170008211700089B
:10004000430200084302000843020008430200087C
:10005000430200084302000843020008430200086C
:10006000430200084302000843020008430200085C
:10007000430200084302000843020008430200084C
:10008000430200084302000843020008430200083C
:1000900085040008430200084302000843020008E8
:1000A000430200084302000843020008430200081C
:1000B000430200084302000843020008430200080C
:1000C00043020008430200084302000843020008FC
:1000D00043020008430200084302000843020008EC
:1000E00043020008430200084302000843020008DC
:1000F00043020008430200084302000843020008CC
:1001000043020008430200084302000843020008BB
:1001100043020008430200084302000843020008AB
:10012000430200084302000843020008430200089B
:10013000430200084302000843020008430200088B
:10014000910400084302000843020008430200082B
:10015000430200084302000843020008430200086B
:10016000430200084302000843020008430200085B
:100170004302000843020008430200080000000098
:10018000430200084302000800F002F800F03CF8C7
:100190000AA090E8000C82448344AAF10107DA45E2
:1001A00001D100F031F8AFF2090EBAE80F0013F0F8
:1001B000010F18BFFB1A43F001031847401A000053
:1001C000601A0000103A24BF78C878C1FAD85207E4
:1001D00024BF30C830C144BF04680C6070470000C1
:1001E0000023002400250026103A28BF78C1FBD840
:1001F000520728BF30C148BF0B6070471FB501F0E0
:10020000CCFC1FBD10B510BD00F001F91146FFF781
:10021000F5FF01F07DFC00F01FF903B4FFF7F2FFDA
:1002200003BC00F027F9000009488047094800474F
:10023000FEE7FEE7FEE7FEE7FEE7FEE7FEE7FEE796
:10024000FEE7FEE704480549054A064B70470000F3
:10025000B9170008890100080801002008070020DC
:10026000080300200803002053EA020C00F0698014
:100270002DE9F04B4FF00006002B1FBFB3FA83F5BA
:1002800003FA05F424FA05F65E4012BF1643B2FAEB
:1002900082F502FA05F4C5F120051EBF22FA05FC1D
:1002A00044EA0C04203556EA044C4FEA144418BFC3
:1002B000641C4FF000084FF00009904271EB030CF2
:1002C00039D3002919BFB1FA81F701FA07F6B0FA5C
:1002D00080F700FA07F6C7F120071EBF20FA07FCD7
:1002E00046EA0C062037B6FBF4FCA7EB0507103FE7
:1002F00007F01F0BCBF120060CFA0BFB2CFA06F6CD
:1003000044BFB3460026202FA4BF5E464FF0000B2B
:100310005BEA060C08BF4FF0010B19EB0B09ABFBB6
:10032000027C48EB0608C01B06FB02CC0BFB03CC8F
:1003300071EB0C01C1E70B46024641464846BDE859
:10034000F08B13B54FF000004FF00001AFF30080C9
:10035000BDE81C40704710B5203AC0F00B80B1E8F2
:100360001850203AA0E81850B1E81850A0E81850EA
:10037000BFF4F5AF5FEA027C24BFB1E81850A0E8F3
:10038000185044BF18C918C0BDE810405FEA827C0D
:1003900024BF51F8043B40F8043B08BF7047D20724
:1003A00028BF31F8023B48BF11F8012B28BF20F8C5
:1003B000023B48BF00F8012B70474FF0000200B528
:1003C000134694469646203922BFA0E80C50A0E878
:1003D0000C50B1F12001BFF4F7AF090728BFA0E826
:1003E0000C5048BF0CC05DF804EB890028BF40F8F2
:1003F000042B08BF704748BF20F8022B11F0804F34
:1004000018BF00F8012B704770477047704775465A
:1004100000F02CF8AE4605006946534620F0070070
:10042000854618B020B5FFF70DFFBDE820404FF01E
:1004300000064FF000074FF000084FF0000B21F0CE
:100440000701AC46ACE8C009ACE8C009ACE8C0099B
:10045000ACE8C0098D46704710B50446AFF3008084
:100460002046BDE81040FFF7D8BE000000487047A6
:10047000A800002001491820ABBEFEE726000200BC
:100480007047FEE7014800F0AAB900001400002000
:10049000014800F0A4B900003C00002070471CB5E2
:1004A0008DF80000FE208DF8010098208DF80200E4
:1004B0006B208DF803108DF804000521684601F0CB
:1004C000A1FA1CBD1CB58DF80000F6208DF80100C6
:1004D0008DF80210100A8DF803008DF804208DF8B5
:1004E000053000208DF806006B208DF807000821EC
:1004F000684601F087FA1CBD72B6FEE790F820202E
:10050000012A07D0022A05D0416A41F480214162C4
:1005100001207047006842690A4342610020704729
:10052000F0B590F820500468A468012D05D0022D84
:1005300003D0416A41F4802153E014F0406F01D1AF
:10054000E5004BD5C4F30164022C03D9416A41F4A0
:10055000000146E00125A5401D608D684FF4C07381
:100560009DB1CE6835434E6845EAC605066803EB83
:100570000417F5514FF4C275076805EB04150E69B1
:100580007E51097D012905D009E00E88CD6845EA34
:100590004655EBE701684E5946F480764E51117985
:1005A000D2F805504FF4C67641EA0525016806EBFE
:1005B00004168D511178D2F801204FF4C47541EA28
:1005C0000221026805EB04155151006803EB041188
:1005D000425842F0010242500020F0BD416A41F40D
:1005E000001141620120F0BD10B590F82020012AD1
:1005F00007D0022A05D0416A41F4802141620120DE
:1006000010BD3B48D0F8002242F00102C0F80022A1
:10061000D0F8002222F47C52C0F80022D0F8002248
:100620004B6A42EA0322C0F800220A7D02F01F034F
:1006300001229A40D0F81C329343C0F81C32CB6997
:10064000B3B9D0F80C329343C0F80C328C894B68A4
:1006500064F31F434C6900EBC404C4F840320C89B6
:100660000B6864F31F434C6900EBC404C4F84432C4
:10067000CB69012B16D1D0F80C321343C0F80C32E1
:100680000C884B6864F31F434C6900EBC404C4F846
:1006900040320C89CB6864F31F434C6900EBC404FF
:1006A000C4F844328B69002BD0F804320ED01343C7
:1006B000C0F804320B69002BD0F8143208D0134371
:1006C000C0F81432096A012904D008E09343EFE727
:1006D0009343F5E7D0F81C121143C0F81C12D0F870
:1006E000001221F00101C0F80012002010BD00002E
:1006F00000640040704730B590F82040012C05D0D0
:10070000022C03D0416A41F480215DE00468002995
:1007100055D02469A40754D04FF4D874056804EB6D
:1007200001142D5915F00405956005682D594ED01A
:10073000ED08556005682C5904F00204D4604FF4AC
:10074000DA74056804EB01142D5905F00F051561E5
:1007500005682D59C5F30725956105682C59240CAA
:1007600054614FF4DC72046802EB0112A4581C704F
:100770000468A458240A5C700468A458240C9C7073
:100780000468A258120EDA704FF4DE72046802EBAD
:100790000112A4581C710468A458240A5C710468EE
:1007A000A458240C9C710468A258120EDA710068D7
:1007B00081B1016941F020010161002030BDE46890
:1007C000A8E7416A41F400114162012030BD6D0D7E
:1007D0001560AFE7C16841F02001C160EDE72DE988
:1007E000F05F0546006800244669D0F804908768E9
:1007F000D0F80CB0D0F810A0D0F81880F10748D08D
:10080000F90714D001218160B80703D5284600F00C
:1008100038FA0CE0780702D54FF4006407E0380797
:1008200002D54FF4805402E0284600F029FAF8057A
:1008300016D529684FF480708860B80503D528461E
:1008400000F021FA0CE0780502D544F4005407E0EA
:10085000380502D544F4804402E0284600F012FA3C
:10086000F80316D529684FF480308860B80303D5A3
:10087000284600F00AFA0CE0780302D544F400445C
:1008800007E0380302D544F4803402E0284600F043
:10089000FBF9300707D55FEACB6004D52968102043
:1008A00044F40074C86070074FF0080707D55FEA8A
:1008B0000B7004D52868C760284600F09BF9B00784
:1008C00006D52868C068800702D0284600F094F951
:1008D000700607D55FEACA6004D52968102044F481
:1008E00080640861B00607D55FEA0A7004D52868FD
:1008F0000761284600F094F9F00606D528680069DB
:10090000800702D0284600F08CF9B00308D55FEAD2
:10091000C96005D5296810204860284600F082F992
:10092000F00307D55FEA097004D5286847602846B8
:1009300000F0ACF9300446D55FEA497040D5F005C7
:1009400004D55FEAC87001D044F00104B00504D5B5
:100950005FEA887001D544F00204700504D55FEAAF
:10096000487001D544F00404300529D518F0700F03
:1009700026D008F07000402815D006DC102809D0D9
:1009800020280AD0302816D10AE050280ED060283E
:1009900011D10EE044F008040DE044F010040AE028
:1009A00044F0200407E044F0400404E044F08004F4
:1009B00001E044F480742868816921F0700181614C
:1009C000296804204860002C05D0686A20436862CA
:1009D0002846FFF78FFEBDE8F09F70B5040003D0F6
:1009E00094F8200010B104E0012070BD204600F012
:1009F00081F82068016841F00101016000F052FABD
:100A00000546052604E000F04DFA401B0A2811D8DF
:100A100020684068C007F6D02068016821F0020114
:100A2000016000F03FFA05460BE000F03BFA401B86
:100A30000A2806D9606A40F40030606284F82060B9
:100A4000D2E7206840688007EFD4207E0128206824
:100A500001683DD021F080010160607E012820689E
:100A6000016838D021F040010160A07E0128206893
:100A7000016833D021F020010160E07E0128206868
:100A800001682ED041F010010160207F012820680C
:100A9000016829D021F008010160607F01282068E9
:100AA000016824D021F004010160D4E90201084367
:100AB000D4E90412114308436168491E08432168C0
:100AC000C86100206062012084F82000002070BD11
:100AD00041F08001C0E741F04001C5E741F020014D
:100AE000CAE721F01001CFE741F00801D4E741F057
:100AF0000401D9E7F0B587B0044614216846FFF732
:100B00005CFC374B3748DFF8D4E01968D4F800C0F4
:100B1000344A02250326092710300024491CF445D5
:100B200024D11960012907D1016841F000710160E9
:100B3000006800F000700590106840F0010010603F
:100B4000106802AB00F0010005904FF4C050CDE9F1
:100B5000000583E8D0006946234800F0ABF8002286
:100B60001146142000F00CFA142033E0DFF87CE08A
:100B7000F44531D1D0F800C04CF0806CC0F800C012
:100B8000D0F800C001290CF0806CCDF814C01960B9
:100B900007D1016841F000710160006800F0007049
:100BA0000590106840F002001060106802AB00F081
:100BB000020005904FF44050CDE9000583E8D000D5
:100BC00069460B4800F076F800221146402000F0FC
:100BD000D7F9402000F0C6F907B0F0BD006400402E
:100BE0000000002030380240000002400068004051
:100BF000000402407047000000B5074989B08842F0
:100C000002D00649884204D107AB6A460021FFF7AB
:100C100072FD09B000BD0000140000203C0000205F
:100C2000704770477047000070B5044690F8200088
:100C3000012804D0606A40F40020606218E00220BD
:100C400084F820002068016821F00101016000F0B3
:100C500029F905460EE000BF00F024F9401B0A28E0
:100C600008D9606A40F400306062052084F82000F2
:100C7000012070BD20684068C007EDD1606270BD82
:100C80007047704770477047704770477047000063
:100C900070B5044600F006F90546601C02D0044811
:100CA0000078044400F0FEF8401BA042FAD370BD67
:100CB000040000202DE9F84FDFF8BCA10022012537
:100CC00003264FF00F090AF1040BAAF1040E00BF2E
:100CD0000B6805FA02F42340A34270D10F7907F0A4
:100CE0000307012F01D0022F16D187684FEA42086F
:100CF00006FA08FC27EA0C07D1F80CC00CFA08FC2D
:100D00004CEA070CC0F808C04768A7430C79C4F345
:100D1000001494403C4344600C79E443A4070AD097
:100D2000C4684FEA420C06FA0CF7BC438F6807FA16
:100D30000CF72743C7600C7904F00304022C12D18E
:100D4000D40800EB840CDCF820405707FF0E09FAAA
:100D500007F824EA0804D1F8108008FA07F848EAEE
:100D60000408CCF8208004684FEA420C06FA0CF71D
:100D7000BC430F7907F0030707FA0CF72743076016
:100D80004C6814F4403F70D03C4C276847F48047CF
:100D90002760246822F0030704F480440094384C50
:100DA00007EB040CDCF8084897074FEA177809FAB4
:100DB00008F7BC43334FB84202D1002724E054E087
:100DC000314FB84201D101271EE0304FB84201D166
:100DD000022719E02E4FB84201D1032714E02D4F0E
:100DE000B84201D104270FE02B4FB84201D10527AB
:100DF0000AE02A4FB84201D1062705E0284FB84241
:100E000001D1072700E0082707FA08F72743CCF8A5
:100E10000878DAF800405746D1F804C09C435FEAEE
:100E2000CC2C00D51C433C60DBF800405F46D1F879
:100E300004C09C435FEA8C2C00D51C433C60DEF868
:100E400000407746D1F804C09C435FEA8C3C00D553
:100E50001C433C60084F083F3C68D1F804C09C43E9
:100E60005FEACC3C00D51C433C60521C102AFFF4C6
:100E70002FAFBDE8F88F0000083C01404438024025
:100E8000003001400000024000040240000802401F
:100E9000000C024000100240001402400018024002
:100EA000001C0240014880687047000004000020D8
:100EB0000248816802781144816070470400002074
:100EC0000B4810B5016841F400710160016841F4FC
:100ED00080610160016841F480710160032000F0CD
:100EE0006FF80F2000F006F800F024F8002010BD85
:100EF000003C024070B50D4D04464FF47A712878DD
:100F0000B1FBF0F00A490968B1FBF0F000F00AFB10
:100F100048B9102C07D200222146501E00F030F8AC
:100F200000206C6070BD012070BD00000400002036
:100F3000100000200A4808B5016841F480410160B2
:100F4000006800F4804000900548001F016841F0EF
:100F500080510160006800F08050009008BD0000E2
:100F600044380240002809DB00F01F0201219140B3
:100F70004009800000F1E020C0F800117047000037
:100F8000F0B40E4B1B680C46C3F30223C3F10705F4
:100F9000042D00D90425191D072901D2002300E0E2
:100FA000DB1E012606FA05F1491E214099409E40AC
:100FB000761E16403143F0BC00F0E3BC0CED00E0BF
:100FC000064900F0070208684FF6FF03184040EAA0
:100FD0000220034A10430860704700000CED00E057
:100FE0000000FA052DE9F0470E46050065D0DFF850
:100FF0001481D8F80000F7B200F00700B04207D221
:1010000088F80070D8F8000000F00700B04254D112
:1010100028683D4C810712D5400703D5206840F46D
:10102000E05020602878000703D5206840F4604035
:1010300020602068A96820F0F0000843206028782C
:10104000C0072DD0304968680839012812D002281D
:1010500013D0032811D00968890700292DDA2168E7
:1010600021F0030101432160FFF71CFF814641F29B
:10107000883A0EE009688903EFE709688901ECE71F
:10108000FFF710FFA0EB0901514502D90320BDE88D
:10109000F0872068696800F00C00B0EB810FEFD199
:1010A000D8F80010404601F00701B14207D9077097
:1010B000006800F00700B04201D00120E7E728787F
:1010C000400705D52068E96820F4E0500843206017
:1010D0002878000706D52068296920F4604040EA96
:1010E000C100206000F038F82168084AC1F30311FC
:1010F000515CC8400649086006480068FFF7FAFEE0
:101100000020C4E7003C024008380240A41B00084D
:101110001000002008000020044805490068096804
:10112000044AC1F38221515CC8407047100000207E
:1011300008380240B41B00080448054900680968E3
:10114000044AC1F34231515CC8407047100000208E
:1011500008380240B41B0008154810B5006810F0AC
:101160000C02144813D04110042A0FD0082A0ED1C3
:101170000F4C241F2268236802F03F025B0207D550
:101180002068C0F38810A0FB010106E0084610BDEE
:101190002168C1F38811A1FB00010023FFF764F867
:1011A0002168C1F30141491C4900B0FBF1F010BDB9
:1011B000083802400024F4002DE9F84F04006ED0F6
:1011C0002078DFF84C93C007A9F104054AD009F153
:1011D00004000168C1F38101012908D00068C0F34F
:1011E000810002280AD1D9F80000400206D52868FB
:1011F000800337D560680028E1D033E06068B0F53F
:10120000803F10D0B0F5A02F286810D020F4803097
:101210002860286820F4802028606068A8B1FFF763
:1012200041FE06460DE0286840F48030F4E740F4C3
:1012300080202860F7E700BFFFF734FE801B64289A
:1012400073D828688003F7D50CE0FFF72BFE06461D
:1012500005E000BFFFF726FE801B6428F0D8286851
:101260008003F7D42078DFF8AC8280074FF0000AC3
:101270003ED5A748001D016811F00C0F08D000688A
:10128000C0F3810002280BD1D9F80000400207D436
:101290002868800716D5E068012800D112E033E104
:1012A000E068B8B10120C8F80000FFF7FBFD064672
:1012B00005E000BFFFF7F6FD801B0228C0D82868B4
:1012C0008007F7D52868216920F0F80040EAC100BE
:1012D00028600DE0C8F800A0FFF7E4FD064604E032
:1012E000FFF7E0FD801B02281FD828688007F7D48D
:1012F0002078000722D5864F87486169703771B121
:1013000001210160FFF7CEFD064604E0FFF7CAFDAC
:10131000801B022809D838688007F7D50EE0C0F88E
:1013200000A0FFF7BFFD064605E082E0FFF7BAFD2B
:10133000801B02287DD838688007F7D420784007C2
:1013400068D5DFF8CCB100270BF13C0BDBF80000CF
:10135000C0000BD4DBF8001041F08051CBF8001036
:10136000DBF80000012700F0805000906B4E3068E1
:10137000C00510D4306840F480703060FFF792FDF3
:10138000009005E0FFF78EFD0099401A022850D822
:101390003068C005F6D55E4EA0686C3601280FD0C7
:1013A0000528306810D020F001003060306820F04F
:1013B00004003060A068B8B1FFF774FD00900FE042
:1013C000306840F00100F4E740F004003060F7E7D7
:1013D000FFF768FD0099411A41F28830814266D8D2
:1013E00030688007F4D50EE0FFF75CFD009007E061
:1013F000FFF758FD0099411A41F28830814256D8D2
:1014000030688007F4D42FB1DBF8001021F0805150
:10141000CBF80010A069C8B33D49091D0968C1F3A4
:10142000810102294AD00228504607D0C8F860003E
:1014300000E03CE0FFF736FD04463BE04746C8F8D5
:101440006000FFF72FFD064605E000BFFFF72AFD0D
:10145000801B02282BD828688001F7D4D4E9070123
:101460000843A16A2E4A490802EB0141626A41EA37
:101470008211084394F82C1040EA0161C9F8001069
:1014800001203866FFF70EFD044606E03EE000BF8F
:10149000FFF708FD001B022809D828688001F7D54E
:1014A00034E000BFFFF7FEFC001B022802D9032036
:1014B000BDE8F88F28688001F4D427E00128F7D030
:1014C000D9F80000E26900F4800191421CD1226A3F
:1014D00000F03F01914217D147F6C071626A0140A6
:1014E000B1EB821F10D1A26A4FF0FF3300F44031FC
:1014F00003EB5202B1EB024F06D194F82C1000F02E
:101500007060B0EB016F01D00120D1E70020CFE780
:101510000438024000004742800E474200700040FD
:101520000000FFFF10B5401EB0F1807F01D3012005
:1015300010BD4FF0E02460610F21601700F021FA28
:101540000020A06107202061002010BD70B50400BC
:1015500004D094F83D00002510B106E0012070BDD4
:1015600084F83C50204600F023F8242084F83D0005
:101570002068C16821F40051C160204600F024F9C0
:101580002068016921F4904101612068416921F0DE
:101590002A0141612068C16841F40051C16025649D
:1015A000202084F83D0084F83E00002070BD00003B
:1015B00010B586B0044614216846FEF7FEFE1349B6
:1015C000206888421FD112480021026842F400229C
:1015D0000260006800F4002005900D481038026891
:1015E00042F0010202600068022200F00100059052
:1015F0000320CDE90210CDE90002082004906946DD
:101600000448FFF757FB06B010BD0000004C004037
:101610004038024000000240FEE700000F4810B5CD
:101620000D4901600621416000214FF44032816084
:10163000C0E903124FF4801242610176417681764F
:10164000C17601774177FFF7C8F9002803D0BDE8DC
:101650001040FEF751BF10BD006400401400002090
:101660000F4810B50D4901600621416000214FF47B
:1016700040328160C0E903124FF48012426101766A
:1016800041768176C17601774177FFF7A6F9002888
:1016900003D0BDE81040FEF72FBF10BD006800402A
:1016A0003C0000200D4808B5016841F08001016050
:1016B000016801F080010091016841F001010160C1
:1016C000016801F001010091016841F0020101602F
:1016D000006800F00200009008BD000030380240B1
:1016E0000C4810B50A4901604FF4E1314160002116
:1016F00081600C22C160C0E904128161C161FFF701
:1017000025FF002803D0BDE81040FEF7F5BE10BD50
:10171000004C004064000020FEE7FEE77047704781
:10172000FFF7C6BB30B593B030216846FEF745FEE3
:1017300014210CA8FEF741FE1D480025016841F068
:1017400080510160006800F08050119019480168D4
:1017500041F4804101600068022400F4804011904F
:1017600001200090000401908001CDE9064008AA04
:101770000420A82182E813000B906846FFF71CFDA7
:1017800008B172B6FEE70CA90F2081E831004FF4D2
:10179000A0500F904FF48050109005210CA8FFF737
:1017A00021FC002801D072B6FEE713B030BD000066
:1017B00040380240007000400248016841F4700166
:1017C0000160704788ED00E070B50446006801696B
:1017D000E26821F44051114301612169A068E26986
:1017E00008436169114308432168CA6849F20C63E0
:1017F0009A430243CA6020684169A26921F440719A
:101800001143416131492068884202D03049884201
:1018100002D1FFF791FC01E0FFF77EFCE2690023B3
:10182000192164253226B2F5004F626828D0A0FB4A
:101830000101930F9200FEF717FD0146B0FBF5F092
:101840006FF01802504301EB800006EB0010B0FB74
:10185000F5F000F0F002B1FBF5F002EB0012B1FB85
:10186000F5F06FF01803584301EB800006EB001011
:10187000B0FBF5F000F00F0021681044886070BDE7
:10188000A0FB010192185B41FEF7EEFC0146B0FBA4
:10189000F5F00201B1FBF5F06FF01803584301EBCE
:1018A000800006EBC000B0FBF5F000F0F80002EBA2
:1018B0004002B1FBF5F0584301EB800006EBC0009D
:1018C000B0FBF5F000F00700D6E700000010014083
:1018D00000140140FEE770B50D4606460124E007FE
:1018E0002B46324601D0012100E000212046FEF7C0
:1018F000E9FD641CE4B2042CF1D970BD70B50D464D
:1019000006460124E0072B46324601D0002100E0C4
:1019100001212046FEF7D6FD641CE4B2042CF1D967
:1019200070BD70B50D46064601240EE0012C0CD0AA
:10193000022C0AD02B46324600212046FEF7C2FD7B
:10194000641CE4B2042CF1D970BD2B46324601214F
:10195000F3E770B50D46064601240EE0012C0CD0CD
:10196000022C0AD02B46324601212046FEF7AAFD62
:10197000641CE4B2042CF1D970BD2B463246002120
:10198000F3E70907090E002804DB00F1E02080F8E6
:101990000014704700F00F0000F1E02080F8141DE3
:1019A000704710B5012400212046FEF778FD641C25
:1019B000E4B2042CF7D910BD00B58BB028220E4933
:1019C0006846FEF7C8FC69460C48FEF70DFE4FF46A
:1019D0007A70FFF75DF90948FFF726F902210748F9
:1019E000FEF78CFD0648FFF71FF902210448FEF7B9
:1019F00085FD0BB000BD0000BC1B000814000020DA
:101A00003C00002070B58EB0002405468DF80040E3
:101A10008DF80C408DF808408DF804408DF830406A
:101A2000891E8DF80C100AAE63E000BF9DF80C0013
:101A30009DF80010401A8DF808001822314904A8BA
:101A4000FEF789FC28789DF8301041EA00200590C7
:101A500068788DF828009DF808008DF80440082863
:101A600012D32DE09DF800009DF8041028448078E2
:101A7000314448709DF80400401C8DF804009DF826
:101A80000000401C8DF800009DF804009DF808102F
:101A90008842E7D39DF80800401C18E09DF800003C
:101AA0009DF8041028448078314448709DF8040063
:101AB000401C8DF804009DF80000401C8DF80000CB
:101AC0009DF804009DF808108842E7D3082008908C
:101AD00028784FF0000302280AAA04A901D80A486E
:101AE00000E00A48FEF71CFD9DF83000401C8DF810
:101AF00030009DF800009DF80C10884296D30EB07F
:101B000070BD0000E41B0008140000203C00002011
:101B1000FFF7D6F9FFF706FEFFF7C4FDFFF77EFDDE
:101B2000FFF79EFDFFF7DCFDFFF746FF40F6B834F8
:101B30004FF47A7541F2883664210846FFF7DEFEDD
:101B40002046FFF7A5F8FFF72CFF2846FFF7A0F87F
:101B500064210846FFF7FDFE2046FFF799F8FFF7DE
:101B600020FF2846FFF794F864210846FFF7D9FEC6
:101B70002046FFF78DF8FFF714FF2846FFF788F897
:101B800064210846FFF7A7FE2046FFF781F8FFF71C
:101B900008FF3046FFF77CF8CEE74FF04070E1EEEB
:101BA000100A70470000000000000000010203045A
:101BB00006070809000000000102030400000000FD
:101BC0000000000000000000000000000000000015
:101BD0000000000000000000010000000100000003
:101BE0000E000000000000000000000004000000E3
:101BF0000000000000000000000000001C1C0008A5
:101C00000000002014000000C4010008301C00087F
:101C100014000020F4060000E001000800000000AD
:101C20000100000010000000000000000024F4008B
:040000050800018965
:00000001FF
