:020000040800F2
:10000000D05E00205D020008671F00084319000849
:10001000651F0008A9030008E9240008000000008B
:100020000000000000000000000000009D0100082A
:100030002504000800000000F90100083121000833
:1000400077020008770200087702000877020008AC
:10005000770200087702000877020008770200089C
:10006000770200087702000877020008770200088C
:10007000770200087702000877020008770200087C
:10008000770200087702000877020008770200086C
:10009000AD03000877020008770200087702000825
:1000A000770200087702000877020008770200084C
:1000B000770200087702000877020008770200083C
:1000C000770200087702000877020008770200082C
:1000D00077020008DD240008770200087702000894
:1000E000770200087702000877020008770200080C
:1000F00077020008770200087702000877020008FC
:1001000077020008770200087702000877020008EB
:1001100077020008770200087702000877020008DB
:1001200077020008770200087702000877020008CB
:1001300077020008770200087702000877020008BB
:10014000B903000877020008770200087702000868
:10015000770200087702000877020008770200089B
:10016000770200087702000877020008770200088B
:1001700077020008770200087702000800000000FC
:100180007702000877020008DFF80CD000F0ECF8E6
:100190000048004759270008D05E00202C4B196802
:1001A0000868B0E8F04F80F30988BFF36F8F4FF015
:1001B000000080F3118870470000000008480068C4
:1001C000006880F308884FF0000080F3148862B65E
:1001D00061B6BFF34F8FBFF36F8F00DF00BF00BF6B
:1001E00008ED00E0DFF80C00016841F470010160E7
:1001F000704700BF88ED00E0EFF30980BFF36F8F19
:10020000134B1A681EF0100F08BF20ED108A20E96A
:10021000F04F106009B44FF0500080F31188BFF325
:100220004F8FBFF36F8F03F0F7F94FF0000080F3AB
:10023000118809BC19680868B0E8F04F1EF0100F6B
:1002400008BFB0EC108A80F30988BFF36F8F704746
:100250002C000020EFF3058070470000064880471F
:1002600006480047FEE7FEE7FEE7FEE7FEE7FEE79B
:10027000FEE7FEE7FEE7FEE7DD2100088901000852
:100280002DE9F05F0546002092469B4688460646CB
:10029000814640241BE0284641464746224600F05E
:1002A00053F853465A46C01A914110D31146184686
:1002B000224600F03AF82D1A67EB01084F46224615
:1002C0000120002100F031F817EB00094E41201EFB
:1002D000A4F10104DFDC484631462A464346BDE826
:1002E000F09F40EA01039B0703D009E008C9121FF1
:1002F00008C0042AFAD203E011F8013B00F8013BE0
:10030000521EF9D27047D2B201E000F8012B491E0B
:10031000FBD270470022F6E710B513460A460446A2
:100320001946FFF7F0FF204610BD202A04DB203AD3
:1003300000FA02F1002070479140C2F1200320FA38
:1003400003F3194390407047202A04DB203A21FA36
:1003500002F00021704721FA02F3D040C2F12002DE
:100360009140084319467047064C074D06E0E06887
:1003700040F0010394E8070098471034AC42F6D3EC
:10038000FFF706FF2842000848420008044C0B22F1
:10039000E11C044801F0B4FA0A2002F0FAF9F6E789
:1003A000BC110020FC000020FEE70000014800F026
:1003B000CAB90000AC000020014800F0C4B9000038
:1003C000D4000020164C24E0207805281AD2DFE85B
:1003D00000F003060B10150002F00DF912E0217A6F
:1003E000606801F0F6FD0DE0217A606801F0C6FD5D
:1003F00008E0217A606801F018FE03E0217A606865
:1004000001F040FE0020607002F08AFF0A2002F036
:10041000C0F902F065FF60780128F5D1D4E700004B
:10042000C45A00207047000031B54FF461754FF099
:10043000E0241DE000982B46984200D8009BA0695C
:10044000A3EBC30101EB410100EB8101002905DBB6
:10045000A269824209DA8A42FADA06E0064A0A44C6
:10046000A1698142FCDD9142FADC0098C01A00903B
:1004700000980028DED138BD204801007FB508ACC7
:1004800070CC8DF80000FD208DF801008DF8021071
:10049000100A8DF803008DF804208DF80530200E29
:1004A0008DF80600200C8DF80700200A8DF8080052
:1004B0008DF809408DF80A508DF80B606B208DF88F
:1004C0000C000D21684602F0CBF87FBD1CB58DF8FD
:1004D0000000FE208DF8010098208DF802008DF8B4
:1004E00003106B208DF804000521684602F0B8F86F
:1004F0001CBD08B5002100918DF80000FF208DF88B
:10050000010066208DF802006B208DF803000421A5
:10051000684602F0A5F808BD72B6FEE790F8202004
:10052000012A07D0022A05D0416A41F480214162A4
:1005300001207047006842690A4342610020704709
:10054000F0B590F820500468A468012D07D0022D62
:1005500005D0416A41F4802141620120F0BD04F0E0
:10056000806504F00066354301D1E5005BD5C4F336
:100570000164022C05D9416A41F400014162012065
:10058000F0BD0125A5401D608B684FF4C0759BB17F
:10059000CE6805EB041733434E6843EAC60306688A
:1005A000F3514FF4C273076803EB04130E69FE5056
:1005B000097D012909D00DE00E88CB6805EB0417F1
:1005C00043EA46530668F351EBE70168CE5846F418
:1005D0008076CE501179D379567941EA03619379C7
:1005E0001B0443EA062319434FF4C676036806EB5F
:1005F000041699511178D37841EA036193785278BF
:100600001B0443EA022211434FF4C473026803EB54
:100610000413D150006805EB0411425842F0010266
:1006200042500020F0BD416A41F4001141620120B6
:10063000F0BD000010B590F82020012A07D0022A52
:1006400005D0416A41F480214162012010BD3C483F
:1006500000F50070026842F001020260026822F4B4
:100660007C52026002684B6A42EA032202600A7D01
:1006700002F01F0301229A40C3699343C361A0F5AE
:100680000070CB69B3B9D0F80C329343C0F80C3288
:100690008C894B6864F31F434C6900EBC404C4F8B5
:1006A00040320C890B6864F31F434C6900EBC404AF
:1006B000C4F84432CB69012B16D1D0F80C32134365
:1006C000C0F80C320C884B6864F31F434C6900EB94
:1006D000C404C4F840320C89CB6864F31F434C69EE
:1006E00000EBC404C4F844328B697BB1D0F8043207
:1006F0001343C0F804320B6973B1D0F814321343BA
:10070000C0F81432096A01290CD010E0D0F8043284
:100710009343C0F80432EEE7D0F814329343C0F8A4
:100720001432EFE7D0F81C121143C0F81C12D0F8B5
:10073000001221F00101C0F80012002010BD0000DD
:100740000064004070472DE9F05F054600242868EA
:100750004669D0F804908768D0F80CA0D0F810B0A3
:10076000D0F81880F10748D0F90714D00121816032
:10077000B80703D5284600F041FA0CE0780702D507
:100780004FF4006407E0380702D54FF4805402E0CC
:10079000284600F032FAF80516D529684FF4807023
:1007A0008860B80503D5284600F02AFA0CE07805E1
:1007B00002D544F4005407E0380502D544F48044DF
:1007C00002E0284600F01BFAF80316D529684FF41A
:1007D00080308860B80303D5284600F013FA0CE097
:1007E000780302D544F4004407E0380302D544F40A
:1007F000803402E0284600F004FA300707D55FEAAB
:10080000CA6004D544F4007429681020C8607007D9
:100810004FF0080707D55FEA0A7004D52868C7605B
:10082000284600F0B9F9B00706D52868C0688007E7
:1008300002D0284600F0B1F9700607D55FEACB6018
:1008400004D544F48064296810200861B00607D5F7
:100850005FEA0B7004D528680761284600F09EF90E
:10086000F00606D528680069800702D0284600F007
:1008700096F9B00308D55FEAC96005D5296810204C
:100880004860284600F08CF9F00307D55FEA09704C
:1008900004D528684760284600F0B5F9300446D5ED
:1008A0005FEA497040D5F00504D55FEAC87001D011
:1008B00044F00104B00504D55FEA887001D544F026
:1008C0000204700504D55FEA487001D544F00404C1
:1008D000300529D518F0700F26D008F07000402898
:1008E00015D006DC102809D020280AD0302816D1CF
:1008F0000AE050280ED0602811D10EE044F0080420
:100900000DE044F010040AE044F0200407E044F055
:10091000400404E044F0800401E044F4807428685A
:10092000816921F070018161296804204860002CF0
:1009300005D0686A204368622846FFF703FFBDE8D8
:10094000F09F70B50446002C03D094F8200010B13D
:1009500004E0012070BD204600F09CF8206801688A
:1009600041F00101016000F0ABFA054605260CE0FC
:1009700000F0A6FA401B0A2807D9606A40F400304C
:10098000606284F82060012070BD20684068C00764
:10099000EED02068016821F00201016000F090FAB9
:1009A00005460CE000F08CFA401B0A2807D9606A63
:1009B00040F40030606284F82060012070BD20683F
:1009C00040688007EED4207E01283FD0206801686F
:1009D00021F080010160607E01283DD0206801681F
:1009E00021F040010160A07E01283BD02068016811
:1009F00021F020010160E07E012839D020680168E3
:100A000041F010010160207F012837D02068016883
:100A100021F008010160607F012835D0206801685D
:100A200021F004010160D4E902010843D4E9041271
:100A3000114308436168491E08432168C8610020CA
:100A40006062012084F82000002070BD20680168E9
:100A500041F080010160BEE72068016841F040017B
:100A60000160C0E72068016841F020010160C2E731
:100A70002068016821F010010160C4E72068016866
:100A800041F008010160C6E72068016841F00401F7
:100A90000160C8E72DE9F04186B00446142101A8A1
:100AA000FFF738FC374B384ADFF8D48018682168E4
:100AB000354C02260327401C103200254FF0090C4C
:100AC000414529D11860012807D1106840F0007015
:100AD0001060106800F000700090206840F0010085
:100AE0002060206800F0010000904FF4C050019099
:100AF000029603950497CDF814C001A9234800F08D
:100B0000EFF800220521142000F04EFA142000F026
:100B10003DFA06B0BDE8F081DFF874804145F8D1B8
:100B2000116841F080611160116801F080610091ED
:100B30001860012807D1106840F00070106010683C
:100B400000F000700090206840F0020020602068F3
:100B500000F0020000904FF440500190029603957F
:100B60000497CDF814C001A90A4800F0B9F8002292
:100B70000521402000F018FA402000F007FAC8E7ED
:100B800000640040100000203038024000000240A5
:100B9000006800400004024070477047704770478B
:100BA000704770B5044694F82000012805D0606AAB
:100BB00040F400206062012070BD022084F8200013
:100BC0002068016821F00101016000F079F9054613
:100BD0000DE000F075F9401B0A2808D9606A40F45E
:100BE00000306062052084F82000012070BD20687C
:100BF0004068C007EDD1606270BD704770477047B4
:100C000070477047704770472DE9F0410446A76D63
:100C100000F056F9054694F835000026022806D063
:100C20008020606584F834600120BDE8F081206890
:100C3000016821F0160101602068416921F08001FE
:100C40004161206C08B9A06C20B12068016821F0D6
:100C5000080101602068016821F0010101600BE0DA
:100C600000F02EF9401B052806D9202034342062DC
:100C7000032060702670D8E720680068C007EFD1B5
:100C800034343F2094F828108840B8600120607008
:100C900026700020C9E790F83510022903D0802182
:100CA000416501207047052180F835100068016812
:100CB00021F00101016000207047000070B504467A
:100CC00000F0FEF80546601C02D004480078044499
:100CD00000F0F6F8401BA042FAD370BD14000020CB
:100CE0002DE9F84F0022DFF89C914FF0010803270F
:100CF0004FF00F0C09F1040AA9F1040B08FA02F5F0
:100D00000B682B40AB426ED10C7904F00304012C2C
:100D100001D0022C15D18668540007FA04FE26EA99
:100D20000E06D1F80CE00EFA04FE4EEA060EC0F8EC
:100D300008E04468AC430D79C5F3001595402543A0
:100D400045600C79E443A40708D0C568540007FA4D
:100D500004F6B5438E68A6402E43C6600C7904F0B5
:100D60000304022C11D1D40800EB8406356A540721
:100D7000E40E0CFA04FE25EA0E05D1F810E00EFA96
:100D800004FE4EEA050EC6F820E00568540007FA96
:100D900004F6B5430E7906F00306A6402E4306601E
:100DA0004C6814F4403F67D0374C256845F48045C3
:100DB0002560246804F480440094344C22F0030538
:100DC0002E19D6F8085894074FEA147E0CFA0EF440
:100DD000A5432F4CA04201D1002424E02D4CA04279
:100DE00002D101241FE047E02B4CA04201D1022494
:100DF00019E02A4CA04201D1032414E0284CA0425F
:100E000001D104240FE0274CA04201D105240AE0BF
:100E1000254CA04201D1062405E0244CA04201D17A
:100E2000072400E0082404FA0EF42C43C6F808480E
:100E3000D9F800409C434D68ED0200D51C43C9F829
:100E40000040DAF800409C434D68AD0200D51C43D9
:100E5000CAF80040DBF800409C434D68AD0300D564
:100E60001C43CBF80040074D083D2C689C434E685E
:100E7000F60300D51C432C60521C102AFFF43EAF31
:100E8000BDE8F88F083C0140443802400030014082
:100E9000000002400004024000080240000C024032
:100EA000001002400014024000180240001C0240E2
:100EB000002A01D0816170470904816170470000F8
:100EC00001488068704700001400002002488168D3
:100ED00002781144816070471400002010B50B485F
:100EE000016841F400710160016841F480610160B2
:100EF000016841F480710160032000F075F80F2053
:100F000000F006F800F026F8002010BD003C02407A
:100F100070B504460D4D4FF47A712878B1FBF0F0AE
:100F20000B490968B1FBF0F000F050FB08B101205B
:100F300070BD102C07D200222146501E00F034F85C
:100F40006C60002070BD012070BD00001400002006
:100F50002000002082B00C48016841F4804101600B
:100F6000006800F4804001900748001F016841F0CC
:100F700080510160006800F08050019000220F2134
:100F8000901E02B000F010B844380240002809DB7F
:100F900000F01F02012191404009800000F1E02093
:100FA000C0F8001170470000F0B40D460D4B1B68EF
:100FB000C3F30223C3F10704042C00D90424191D30
:100FC000072901D2002300E0DB1E012606FA04F106
:100FD000491E294099409E40761E16403143F0BC80
:100FE00001F0EABA0CED00E000F00701054A1068D4
:100FF0004FF6FF03184040EA012003490843106000
:10100000704700000CED00E00000FA052DE9F04704
:1010100004460D46002C13D0DFF82891D9F80000C3
:10102000EFB200F00700A8420CD289F80070D9F89E
:10103000000000F00700A84204D00120BDE8F087BE
:101040000120FBE72068404E810712D5400703D5F9
:10105000306840F4E05030602078000703D53068F5
:1010600040F4604030603068A16820F0F000084330
:1010700030602078C00731D03349606808390128D2
:1010800008D002280BD0032809D0096889070BD49F
:101090000120D3E70968890306D40120CEE7096857
:1010A000890101D40120C9E7316821F0030101431E
:1010B0003160FFF705FF804641F2883A07E0FFF70D
:1010C000FFFEA0EB0800504501D90320B6E73068C9
:1010D000616800F00C00B0EB810FF0D1D9F800008E
:1010E00000F00700A84209D989F80070D9F800007B
:1010F00000F00700A84201D001209FE720784007B8
:1011000005D53068E16820F4E0500843306020786D
:10111000000706D53068216920F4604040EAC1002C
:10112000306000F03FF83168084AC1F30311515CA8
:10113000C8400749086007480068FFF7E9FE00203B
:101140007CE70000003C0240083802409C41000857
:1011500020000020180000200148006870470000AF
:101160002000002000B5FFF7F7FF04490968044A92
:10117000C1F38221515CC84000BD00000838024024
:10118000AC41000800B5FFF7E7FF04490968044ACD
:10119000C1F34231515CC84000BD00000838024034
:1011A000AC41000810B51748006810F00C01164853
:1011B00016D04310042912D0082911D1114C241F34
:1011C000216801F03F02216849020AD52068C0F376
:1011D0008810A0FB03010023FFF752F809E018462E
:1011E00010BD21680023C1F38811A1FB0001FFF7A6
:1011F00047F82168C1F30141491C4900B0FBF1F0F7
:1012000010BD0000083802400024F4002DE9F84F1A
:101210000446002C13D02078DFF8A083C007A8F183
:10122000040556D008F104000168C1F381010129C9
:101230000CD00068C0F38100022803D00DE001202B
:10124000BDE8F88FD8F80000400206D52868800372
:101250003FD5606870BB0120F2E76068B0F5803F61
:1012600010D0B0F5A02F12D0286820F4803028606C
:10127000286820F4802028606068E0B1FFF720FE35
:10128000064614E0286840F480302860F4E72868B7
:1012900040F480202860286840F480302860EBE724
:1012A000FFF70EFE801B642801D90320C8E72868D9
:1012B0008003F5D50DE0FFF703FE064606E0FFF7D5
:1012C000FFFD801B642801D90320B9E7286880034B
:1012D000F5D42078BA4F80074FF0000948D5B748B9
:1012E000001D016811F00C0F08D00068C0F38100E8
:1012F000022813D1D8F8000040020FD428688007D4
:1013000004D5E068012801D0012099E72868216907
:1013100020F0F80040EAC100286029E0E068B8B198
:1013200001203860FFF7CCFD064606E0FFF7C8FD58
:10133000801B022801D9032082E728688007F5D5A1
:101340002868216920F0F80040EAC10028600FE019
:10135000C7F80090FFF7B4FD064606E0FFF7B0FDC2
:10136000801B022801D903206AE728688007F5D48A
:101370002078000729D5DFF844A2924861690AF174
:10138000700A89B101210160FFF79AFD064606E067
:10139000FFF796FD801B022801D9032050E7DAF8F9
:1013A00000008007F4D510E0C0F80090FFF788FD3A
:1013B000064606E0FFF784FD801B022801D90320C2
:1013C0003EE7DAF800008007F4D42078400778D5AB
:1013D0004FF0000A79483C300068C0000BD47748D1
:1013E0003C30016841F080510160006800F080509D
:1013F00000904FF0010ADFF8D0B1DBF80000C00523
:1014000014D4DBF8000040F48070CBF80000FFF744
:1014100057FD064606E0FFF753FD801B022801D961
:1014200003200DE7DBF80000C005F4D5634EA0688B
:101430006C3601280FD0052812D0306820F001004A
:101440003060306820F004003060A068F8B1FFF729
:1014500037FD834617E0306840F001003060F4E764
:10146000306840F004003060306840F001003060C7
:10147000EBE7FFF725FDA0EB0B0141F2883081423D
:1014800001D90320DCE630688007F2D510E0FFF7D1
:1014900017FD834609E0FFF713FDA0EB0B0141F2B6
:1014A0008830814201D90320CAE630688007F2D42F
:1014B000BAF1010F05D141483C30016821F080515B
:1014C0000160A069C0B33D49091D09684FF0FF36AE
:1014D000C1F38101022946D0022805D0C7F86090E7
:1014E000FFF7EEFC04463AE0C7F86090FFF7E8FC2F
:1014F000814607E0FFF7E4FCA0EB0900022801D9D0
:1015000003209DE628688001F4D4D4E9070108434C
:10151000616AA26A890106EB520241EA024108436C
:1015200094F82C1040EA0160C8F8000001203866E9
:10153000FFF7C6FC044607E03DE0FFF7C1FC001BD7
:10154000022801D903207BE628688001F5D532E026
:10155000FFF7B6FC001B022801D9032070E62868BB
:101560008001F5D427E0012823D0D8F80000E269F3
:1015700000F4800191421AD1226A00F03F019142A9
:1015800015D147F6C071626A0140B1EB821F0ED1DE
:10159000A26A00F4403106EB5202B1EB024F06D1D1
:1015A00094F82C1000F07060B0EB016F03D00120B4
:1015B00046E6012044E6002042E6000004380240EE
:1015C00000004742800E47420070004010B5401EA8
:1015D000B0F1807F01D3012010BD4FF0E0246061A5
:1015E0000F21601700F0E8FF0020A06107202061B4
:1015F000002010BD70477047F8B504462268106897
:10160000D168536900F00F06002E08D1850606D573
:101610008D0604D52046BDE8F84000F023BE002525
:10162000002E66D003F0010601F49077374360D0B6
:10163000C20705D0CA0503D5226C42F0010222641C
:10164000420705D5DA0703D0226C42F00202226479
:10165000820705D5DA0703D0226C42F00402226427
:10166000020707D501F02002324303D0226C42F07A
:1016700008022264226C002A31D0800604D5880634
:1016800002D5204600F0EEFD20684069C0F38010CE
:10169000216C090700D438B3204600F0AFFD206864
:1016A000406940061CD52068143050E8001F21F026
:1016B000400140E80012002AF5D1A06B60B1574903
:1016C0000165A06BFFF7E7FA002808D0A06B016D59
:1016D00001B0BDE8F04008472046FFF78CFFF8BD99
:1016E0002046FFF788FFF8BD2046FFF784FF2564FA
:1016F000F8BD236B012B7ED1C3067CD5CB067AD5F2
:1017000010685068009050694FF02003400643D5A0
:10171000A16B0868406880B20028E9D0A28D82429F
:10172000E6D9E085C869B0F5807F2DD020680C30FF
:1017300050E8001F21F4807140E80012002AF5D122
:101740002068143050E8001F21F0010140E8001229
:10175000002AF5D12068143050E8001F21F0400124
:1017600040E80012002AF5D184F83E302563206855
:101770000C3050E8001F21F0100140E80012002A50
:10178000F5D1A06BFFF740FAA08DE18D401A81B230
:101790002046FFF72FFFF8BDA08DE18D401A81B2E2
:1017A000E08D0028F7D00029F5D020680C3050E8F3
:1017B000002F22F4907240E80026002EF5D1206818
:1017C000143050E8002F22F0010240E80026002EDD
:1017D000F5D184F83E30256320680C3050E8002FA6
:1017E00022F0100240E80023002BF5D12046FFF73D
:1017F00001FFF8BDFFE7020606D50A0604D520461C
:10180000BDE8F84000F03ABE4006F2D54806F0D5F3
:101810002046BDE8F84000F018BD0000ED210008AA
:1018200070B50446002C04D094F83D00002510B19A
:1018300006E0012070BD84F83C50204600F022F8FC
:10184000242084F83D002068C16821F40051C16063
:10185000204600F06BFD2068016921F49041016190
:101860002068416921F02A0141612068C16841F482
:101870000051C1602564202084F83D0084F83E00BA
:10188000002070BD10B586B00446142101A8FEF7F3
:1018900041FD18492068884229D100211648026874
:1018A00042F010020260006800F010000090124840
:1018B0001438026842F001020260006800F0010082
:1018C00000904FF4C0600190022002900391032029
:1018D00004900720059001A90848FFF701FA0022AB
:1018E00005212520FFF760FB2520FFF74FFB06B001
:1018F00010BD0000001001404438024000000240CA
:1019000090F83E30202B01D00220704759B152B1DF
:1019100090F83C30012B08D0012380F83C300023A4
:10192000036300F08DBD0120704702207047000066
:101930000249884201D100F005B87047FC00002040
:101940007047FEE71549C878552826D108795328ED
:101950001DD1134AD1F805001060D1F8090050607C
:101960000020DFED100A9FED100A32F9103001EE71
:10197000103A01EB8003B8EEC11A21EE201A21EED5
:10198000001A83ED041A401CC0B20328EDD30020D6
:1019900041F8030F4860088188727047BC1100202D
:1019A0002400002000000038000034432DE9F041FD
:1019B0008046124E00217088401E83B23088401E3F
:1019C00082B2084600F056F90D4F4FF40020B8617E
:1019D0000420B861002509E0002403E0404600F03F
:1019E000D3F9641C3088A042F8D86D1C7088A842D6
:1019F000F2D80820B861BDE8F08100004001002065
:101A00000000024010B500F023F9CF2000F070F97B
:101A1000002000F05FF9D92000F05CF9302000F0E0
:101A200059F9ED2000F064F9642000F053F9032027
:101A300000F050F9122000F04DF9812000F04AF931
:101A4000E82000F055F9852000F044F9102000F05E
:101A500041F97A2000F03EF9CB2000F049F9392015
:101A600000F038F92C2000F035F9002000F032F9B0
:101A7000342000F02FF9022000F02CF9F72000F0BC
:101A800037F9202000F026F9EA2000F031F9002093
:101A900000F020F9002000F01DF9C02000F028F926
:101AA0001B2000F017F9C12000F022F9122000F0ED
:101AB00011F9C52000F01CF9262000F00BF92620B2
:101AC00000F008F9C72000F013F9B02000F002F987
:101AD000362000F00DF9082000F0FCF83A2000F064
:101AE00007F9552000F0F6F8B12000F001F90020C8
:101AF00000F0F0F81A2000F0EDF8B62000F0F8F849
:101B00000A2000F0E7F8A22000F0E4F8F22000F04C
:101B1000EFF8002000F0DEF8262000F0E9F80120C0
:101B200000F0D8F8E02000F0E3F81F2000F0D2F831
:101B3000242000F0CFF8242000F0CCF80D2000F095
:101B4000C9F8122000F0C6F8092000F0C3F85220AE
:101B500000F0C0F8B72000F0BDF83F2000F0BAF860
:101B60000C2000F0B7F8152000F0B4F8062000F0C3
:101B7000B1F80E2000F0AEF8082000F0ABF800201D
:101B800000F0A8F8E12000F0B3F8002000F0A2F87F
:101B90001B2000F09FF81B2000F09CF8022000F0B2
:101BA00099F80E2000F096F8062000F093F82E2009
:101BB00000F090F8482000F08DF83F2000F08AF8FF
:101BC000032000F087F80A2000F084F8092000F0D4
:101BD00081F8312000F07EF8372000F07BF81F20DC
:101BE00000F078F82B2000F083F8002000F072F865
:101BF000002000F06FF8012000F06CF83F2000F0AA
:101C000069F82A2000F074F8002000F063F8002042
:101C100000F060F8002000F05DF8EF2000F05AF8C6
:101C2000112000F065F87820FFF748F8292000F02F
:101C30005FF8002000F07AF8044910208861BDE8C0
:101C400010404FF6FF70FFF7B1BE000000000240E9
:101C500010B5074C4FF40030A0616420FFF72EF858
:101C60000220A061BDE810403220FFF727B8000035
:101C7000000002402DE9F04104460D4616461F467D
:101C8000DFF8488098F80A0000F032F8200A00F0E7
:101C900021F8E0B200F01EF8300A00F01BF8F0B2B4
:101CA00000F018F898F80C0000F022F8280A00F06C
:101CB00011F8E8B200F00EF8380A00F00BF8F8B2AC
:101CC00000F008F8BDE8F04100F020B84001002025
:101CD000FEE7000010B5054C4FF40021A16104217E
:101CE000A16100F00DFA0820A06110BD00000240C3
:101CF00010B5054C4FF40021A1614910A16100F01D
:101D0000FFF90820A06110BD000002400148007AE0
:101D1000FFF7EEBF4001002010B50C46FFF7E8FFCB
:101D2000E0B2BDE81040FFF7D5BF000015492A22F8
:101D30004A812B228A812C220A81F0224FF4A0733F
:101D400000280BD001280FD0022813D0032817D168
:101D50000B804A8060213620FFF7DEBF0A804B806F
:101D6000C0213620FFF7D8BF0B804A80A021362043
:101D7000FFF7D2BF0A804B8000213620FFF7CCBF8F
:101D8000704700004001002070B50546074C4FF435
:101D90000020A0610420A061280A00F0B1F9E8B297
:101DA00000F0AEF90820A06170BD00000000024004
:101DB00010B50F480D490160062141600021816086
:101DC000C1604FF4803202614FF4401242610176EB
:101DD00041768176C17601774177FEF7B2FD002822
:101DE00003D0BDE81040FEF797BB10BD0064004073
:101DF000AC00002010B50F480D490160062141607C
:101E000000218160C1604FF4803202614FF44012C2
:101E10004261017641768176C17601774177FEF79E
:101E200090FD002803D0BDE81040FEF775BB10BD43
:101E300000680040D400002010B50E4A00210E4872
:101E400000F0E6FC0D4C20600A4A002124320C48C8
:101E500000F0DEFC6060074A00214832094800F0CB
:101E6000D7FCA060034A00216C32074800F0D0FC88
:101E7000E06010BD0C4100088D0300080000002048
:101E8000D11C0008C5030008351F000830B587B015
:101E9000142102A8FEF73EFA00241648016841F01A
:101EA00080010160016801F080010191016841F049
:101EB00001010160016801F001010191016841F037
:101EC00002010160006800F0020001900A4D00224A
:101ED000BE212846FEF7ECFFBE21029101210391AD
:101EE00004940221059102A92846FEF7F9FE07B0E5
:101EF00030BD0000303802400000024010B50C48F0
:101F00000A4901604FF41651416000218160C160AF
:101F100001610C2242618161C161FFF781FC0028EF
:101F200003D0BDE81040FEF7F7BA10BD0010014025
:101F3000FC0000204FF4C85441F2883566104FF47D
:101F40007A7701226421204600F00EF8284600F03E
:101F500020FC02226421304600F006F8384600F0EA
:101F600018FCEEE7FEE7FEE710B5034B01245C70BA
:101F70001A705860197210BDC45A00202DE9FE4332
:101F800005468946012400264FF47A7742F21078FC
:101F9000E00709D0CDE900564B463A4601212046DC
:101FA0000296FEF76BFA08E0CDE900564B463A463A
:101FB000002120460296FEF761FA4046FEF734FA09
:101FC000641CE4B2042CE3D9BDE8FE430020FEF714
:101FD00090BA2DE9FE4F05468A46012400260127C6
:101FE0004FF47A7842F21079E00709D0CDE9017612
:101FF00053464246002120460095FEF73FFA08E08E
:10200000CDE9017653464246012120460095FEF770
:1020100035FA4846FEF708FA641CE4B2042CE3D90A
:10202000BDE8FE4F0020FEF764BA2DE9FE430546E9
:102030008946012400264FF47A7742F21078012C69
:1020400016D0022C14D0CDE900564B463A4600215A
:1020500020460296FEF712FA4046FEF7E5F9641CA8
:10206000E4B2042CEBD9BDE8FE430020FEF741BAF0
:10207000CDE900564B463A46012120460296FEF72E
:10208000FDF9E9E72DE9FE430546894601240026CE
:102090004FF47A7742F21078012C16D0022C14D02B
:1020A000CDE900564B463A46012120460296FEF7FE
:1020B000E5F94046FEF7B8F9641CE4B2042CEBD90C
:1020C000BDE8FE430020FEF714BACDE900564B46AA
:1020D0003A46002120460296FEF7D0F9E9E7026071
:1020E00000228280C280491C0181002103E0036834
:1020F0005A54491C89B203898B42F8D870470000B2
:10210000F0B508210C058023084A8D042026070617
:1021100001D5936100E09461956196614006000EDF
:10212000491EC9B20029F2D1F0BD000000000240F2
:1021300010B5FEF7CBFE01F01FFE012803D0BDE86D
:10214000104001F021BB10BD30B593B0302107A87D
:10215000FEF7E0F8142102A8FEF7DCF800251D4880
:10216000016841F080510160006800F080500190EA
:102170001948016841F480410160006800F4804022
:102180000190012007900004089002240D94800122
:102190000E9004200F90A82110911194129007A87E
:1021A000FFF734F808B1FEF7B7F90F200290039457
:1021B00004954FF4A05005904FF4805006900521EF
:1021C00002A8FEF723FF002801D0FEF7A5F913B0FF
:1021D00030BD0000403802400070004002480168F5
:1021E00041F470010160704788ED00E010B5806B2C
:1021F0000021C185C184FFF7FEF910BD01680C31D3
:1022000051E8002F22F4907241E80023002BF5D111
:102210000168143151E8002F22F0010241E8002347
:10222000002BF5D1016B012909D101680C3151E86E
:10223000002F22F0100241E80023002BF5D12021CD
:1022400080F83E1000210163704710B50168CA682C
:1022500022F04002CA60202180F83D10FFF770FB99
:10226000002010BD08B590F83E10222901D00220B0
:1022700008BD82684FF480539A4201D1016921B1AF
:10228000816A9A421DD052B10BE0816A026852689D
:10229000C2F308020A80816A891C816209E002692E
:1022A0007AB10268526802F07F020A70816A491CA2
:1022B0008162C18D491E0904090CC18505D0002029
:1022C00008BD026852680A70F0E70168CA6822F027
:1022D0002002CA600168CA6822F48072CA6001687C
:1022E0004A6922F001024A61202180F83E10016B08
:1022F000012903D0FFF71CFB002008BD002101636A
:1023000001680C3151E8002F22F0100241E800234F
:10231000002BF5D101680A68D20602D50A6849681F
:102320000091818DFFF766F9E6E700002DE9F041A5
:10233000044620680169E26821F4405111430161BB
:10234000A1682069E2690143606910430143206884
:10235000C26849F20C639A430A43C260206841692B
:10236000A26921F4407111434161334920688842D8
:1023700002D03249884202D1FEF704FF01E0FEF7A5
:10238000F1FEE1690023192764253226B1F5004FDB
:1023900028D061688B0F8A00A0FB0701FDF770FF52
:1023A0000146B0FBF5F07A42504301EB800006EBAA
:1023B0000010B0FBF5F000F0F002B1FBF5F002EB1D
:1023C0000012B1FBF5F07B42584301EB800006EBB5
:1023D0000010B0FBF5F0216800F00F001044886099
:1023E000BDE8F08161684A18A0FB07015B41FDF779
:1023F00047FF0146B0FBF5F00201B1FBF5F06FF0CD
:102400001803584301EB800006EBC000B0FBF5F069
:1024100000F0F80002EB4002B1FBF5F0584301EB8D
:10242000800006EBC000B0FBF5F0216800F007006B
:1024300010448860D4E700000010014000140140FF
:1024400081628285C28500210164222280F83E20BB
:1024500080F83C100169002904D00168CA6842F480
:102460008072CA6001684A6942F001024A610068EC
:10247000C16841F02001C1600020704790F83D1014
:10248000212901D0022070478168B1F5805F01D118
:10249000016961B1016A4A1C0262026809785160EF
:1024A000C18C491E0904090CC1840AD013E0016AD9
:1024B00002680988C1F308015160016A891C016240
:1024C000EEE70168CA6822F08002CA600068C1684D
:1024D00041F04001C1600020704700000148FFF753
:1024E0008BB80000FC000020FEE7000070B586B04D
:1024F0002D4C2C4D2560EE142C4A3146A4F11800C9
:10250000FFF7EDFDA4F61B02314602F60F00FFF7C0
:10251000E6FDA4F10C00A0600C38606000242448A3
:10252000016841F004010160006800F004000090BF
:102530001F481030016841F400210160006800F478
:10254000002000904FF4406001900220029004901F
:10255000012003900820059001A91648FEF7C0FB52
:1025600011480C3005604FF4E13141608460C46073
:10257000046184610C214161C46101220021342085
:10258000FEF712FD3420FEF701FD07480C30FFF77F
:1025900047F90548012205490C30FFF7B1F906B0AB
:1025A00070BD0000004C00406C1100205001002064
:1025B00030380240000802400907090E002804DBF9
:1025C00000F1E02080F80014704700F00F0000F1E7
:1025D000E02080F8141D704702E008C8121F08C1EF
:1025E000002AFAD170477047002001E001C1121F94
:1025F000002AFBD1704710B5012400212046FDF7C9
:1026000065FF641CE4B2042CF7D910BD00B58BB093
:102610002822104901A8FDF764FE01A90E48FEF723
:1026200009F801A90D48FEF705F84FF47A70FEF796
:1026300045FB0948FEF7B5FA02210748FDF76EFF92
:102640000648FEF7AEFA02210448FDF767FF0BB01B
:1026500000BD0000B4410008AC000020D400002000
:1026600070B58EB0044600260D960C960B960A9611
:102670000996891E0C9107AD60E09DF830009DF829
:102680003410401A0B901822304901A8FDF729FE9A
:1026900020789DF8241041EA0020029060788DF89F
:1026A0001C009DF82C0008281CD20A960FE09DF80B
:1026B00034009DF8281020448078294448709DF803
:1026C0002800401C0A909DF83400401C0D909DF895
:1026D00028009DF82C108842E9D39DF82C00401C5E
:1026E000059017E00A960FE09DF8340020448178A9
:1026F0009DF82800284441709DF82800401C0A904D
:102700009DF83400401C0D909DF828000728EBD35D
:10271000082005902078022806D8002307AA01A9DE
:102720000B48FDF70DFF05E0002307AA01A90948A2
:10273000FDF706FF9DF82400401C09909DF8340029
:102740009DF83010884298D30EB070BDDC4100086F
:10275000AC000020D4000020FEF7C0FBFFF7F4FC23
:10276000FFF794FBFFF724FBFFF744FBFFF7C6FBE3
:10277000FFF74CFFFFF746F9FFF7B8FE4FF47A700A
:10278000FEF79CFA00F014F8FFF756FB00F024F86F
:10279000FEE710B50146EFF3058010B16FF00504B8
:1027A00004E0002411B1084600F078FE204610BD78
:1027B000EFF30580002802D06FF005007047054850
:1027C000016811B14FF0FF30704701210160002016
:1027D000704700007C00002010B5EFF30580002852
:1027E00002D06FF0050010BD07480168012902D032
:1027F0004FF0FF3010BD054A002111700221016029
:1028000000F0BAFE002010BD7C0000201FED00E0AB
:102810002DE9F04385B00B464FF000070497EFF326
:10282000058100294ED100284CD080244FF0180C8F
:102830008946491E52B3166806B1B146956905B17D
:10284000AC46ACF10105382D03D2157915F0010F16
:1028500003D005B00020BDE8F083556905B1AC0890
:10286000D2F80880B8F1000F07D0D6685C2E04D3E8
:10287000166916B10DB1012109E0B8F1000F06D1BA
:10288000D56825B9156915B9002100E00021012995
:1028900001D061B116E09168126901920291CDF800
:1028A00000C02246494601F037FA04900AE004A924
:1028B0000191A2B2CDF800C0494601F0F7F9012814
:1028C00000D00497049805B0BDE8F0832DE9F041ED
:1028D00004460F46134EF5683068001D00F0A0FC5A
:1028E000B4F1FF3F07D137B13068BDE8F041011DB9
:1028F0000D4800F0E8BC2C4430684460AC4206D27D
:102900003068011DB06BBDE8F04100F0C1BC30681B
:10291000011D706B00F0BCFCB06A844200D2B4624E
:10292000BDE8F0812C000020E016002070B50446C0
:1029300000F0D6FC1C4DA868401CA860286810B1A7
:10294000686938B10CE02C60A868012808D100F053
:1029500093F905E02868E16AC06A884200D82C60D3
:10296000686A401C68626064E06A2969884200D92C
:1029700028610E4900EB800001EB8000211D00F072
:10298000A2FC00F0CDFC686900280CD02868E16A40
:10299000C06A884207D206494FF080500860BFF3F2
:1029A0004F8FBFF36F8F70BD2C00002030120020BE
:1029B00004ED00E038B500F093FC0F4C2068B8B986
:1029C0000E4800F057FC0E4800F054FC0B48E06045
:1029D0001430206100200B4B009003F150021021B5
:1029E0000A2000F0E7FE206010B107A100F01CFDF6
:1029F000BDE8384000F094BC68000020E4170020D7
:102A0000F8170020F4160020546D725100000000E9
:102A100070B50D4C6068002815D00C4E00F060FCBD
:102A2000F068C568281D00F0FBFBA068401EA06090
:102A30006068401E606000F073FC284600F051F8AA
:102A400060680028EAD170BD2C000020CC16002060
:102A50000B46026C002A0CD0C1681144C160D0F84A
:102A600008C0614501D30168C160C1681846FDF71F
:102A700038BC70472DE9F041044616460027A56B87
:102A8000226C002A10D0C6B1E068FDF72AFCE1688C
:102A9000206C091AE1602268914202D2A168081AEA
:102AA000E060022E16D017E02068A8B9A06801F0F7
:102AB000DDF907460020A0600EE06068FDF711FC1C
:102AC000216C606808446060A168884204D3206873
:102AD000606001E005B16D1E681CA0633846BDE86A
:102AE000F08110B5044694F8591000290BD0012943
:102AF00011D0022914D0502080F31188BFF34F8FDA
:102B0000BFF36F8FFEE7206B00F020FC2046BDE88E
:102B1000104000F01BBC2046BDE8104000F016BC81
:102B200010BD00000749CA681168002904D00021BF
:102B3000016019B1002070470121F9E7D0680068F1
:102B400070470000680000204FF47051104810F0EA
:102B5000070F06D0C01D20F007000D49411AC1F52E
:102B600070510C4A1060002353600144083921F071
:102B70000701183A11604B600B600B1A436001604B
:102B80004068906050604FF0004050617047000016
:102B9000C41E002098000020074E4FF08054074DBF
:102BA000FFF736FF30680128FAD92C60BFF34F8F4A
:102BB000BFF36F8FF4E700003012002004ED00E057
:102BC00070B51D46049C002909D02260E063216491
:102BD0000121204600F026FE84F84C5070BD246090
:102BE000F4E72DE9F05F82460B9F0A9D0C9C0E4690
:102BF00090469B464FEA8801A522206BFDF783FB98
:102C0000206BA8F1010100EB810020F007094FF0D3
:102C1000000866B100202218315C82F83410315C63
:102C200011B1401C1028F6D384F8438001E084F8E9
:102C30003480382D00D33725E562E564C4F8508030
:102C4000201D00F022FB04F1180000F01EFB24619F
:102C5000C5F13800A0616462C4F8548084F85880DB
:102C60005A465146484600F0C5FA2060002F00D071
:102C70003C60BDE8F09F000070B500240F4D04EBF0
:102C8000840005EB800000F0F5FA641C382CF6D3C4
:102C90000B4800F0EFFA0B4800F0ECFA0A4800F09D
:102CA000E9FA0A4800F0E6FA094800F0E3FA0948B0
:102CB000034941631431816370BD0000301200206C
:102CC00090160020A4160020B8160020CC16002074
:102CD000E01600202C00002010B4144900E011463A
:102CE0000A688242FBD34B6803EB010C844503D195
:102CF00040681844486008460C68D0F804C00CEBE3
:102D00000003A3420CD10A4B1B689A4206D05268BA
:102D1000624442600A681268026002E0036000E0F8
:102D20000260814200D0086010BC7047980000200B
:102D30008000002010B5002441600061DFF838C039
:102D400091420BD8D11A8269914201D3012410E03B
:102D5000011DDCF8100000F09BFA0AE09A4203D251
:102D6000994201D3012404E0011DDCF80C0000F0BD
:102D70008FFA204610BD00006800002010B5044600
:102D800000F0AEFAA06B20B1002400F0C9FA204692
:102D900010BD0124F9E710B5044600F0A1FAA06BBC
:102DA000E16B884201D1012400E0002400F0B8FA70
:102DB000204610BDF8B505460E461748C068C068E5
:102DC000C468201D00F02CFA94F8280010F0040FBD
:102DD00018D0A0692B46411932462046FFF7AAFFBA
:102DE000A0B100200346014600902A46204601F08B
:102DF00053F958B9502080F31188BFF34F8FBFF3B8
:102E00006F8FFEE720F0010084F82800216A01B0EE
:102E10002046BDE8F04008476800002030B587B084
:102E2000414D002202A9286800F05CFE002875D000
:102E30000298002803DA039A0599049890470298AB
:102E4000002864DB049C606910B1201D00F0E8F9E3
:102E500001A800F0B3F8024602980A2857D2DFE82A
:102E600000F00505052F364D05052F3694F828008E
:102E700040F0010084F828000398A169034601444A
:102E80002046FFF757FF002841D0216A2046884797
:102E900094F8280010F0040F39D000200090039817
:102EA000A169002342181946204601F0F5F870BBCD
:102EB000502080F31188BFF34F8FBFF36F8FFEE771
:102EC00094F8280020F0010084F828001FE094F80E
:102ED000280040F0010084F828000398A06128B180
:102EE000811813462046FFF725FF10E0502080F39D
:102EF0001188BFF34F8FBFF36F8FFEE794F8280060
:102F000010F0020F0CD020F0010084F828000022FD
:102F100002A9286800F0E6FD002889D107B030BD7D
:102F2000204600F013FAF2E768000020F8B50546E5
:102F30000C4600F069FB684600F040F80646009831
:102F400010B101F00FF8F8BD44B9B54206D801F050
:102F500009F831462846FFF72DFFF8BD0C481CB193
:102F60000169096891B10024A91B2246006800F09C
:102F70006FFA00F0F7FF0028EFD106494FF08050BC
:102F80000860BFF34F8FBFF36F8FF8BD0124EBE7ED
:102F90006800002004ED00E00749486B0068002845
:102FA00005D0486BC068C0684068886270474FF0C1
:102FB000FF308862704700002C00002070B5044686
:102FC00000F0E8FE0546074EB068854204D200F0E6
:102FD0000BF80120206001E000202060B560284649
:102FE00070BD000068000020F8B51C4EF068006855
:102FF000002826D00027F068C0680568C468201D36
:1030000000F00EF9216A2046884794F8280010F055
:10301000040F12D0A0692844A84206D96060246138
:10302000211DF06800F034F907E000232A46194614
:103030002046009701F030F840B1F06800680028A1
:10304000D9D1F0683169F1603061F8BD502080F36A
:103050001188BFF34F8FBFF36F8FFEE7680000202A
:103060000A484068B0F1FF3F07D0502080F3118834
:10307000BFF34F8FBFF36F8FFEE7502080F31188AF
:10308000BFF34F8FBFF36F8FFEE70000A00000205B
:1030900082B001A8FFF746FD0199FFF747FFFFF750
:1030A000BDFEF6E770B5044600F01AF994F94550F4
:1030B000002D0CDD606A50B104F1240000F016FF11
:1030C00008B100F01BFA681E45B2002DF2DC4FF08B
:1030D000FF3684F8456000F023F900F001F994F917
:1030E0004450002D0CDD206950B104F1100000F0B7
:1030F000FDFE08B100F002FA681E45B2002DF2DCB8
:1031000084F84460BDE8704000F00AB92DE9F04150
:103110000546002600F078FA344F386808B9FFF702
:1031200013FD7869054251D19DB1083515F0070F9F
:103130000FD005F00700C0F10800054415F0070F97
:1031400007D0502080F31188BFF34F8FBFF36F8FEC
:10315000FEE7002D3AD07868854237D824490846E2
:10316000046801E0214604466068A84202D2206853
:103170000028F7D13868844228D0086800F1080692
:10318000206808606068411B10290FD9601910F091
:10319000070F07D0502080F31188BFF34F8FBFF384
:1031A0006F8FFEE741606560FFF796FD61687868A4
:1031B000401A7860BA68904200D2B86078690843D3
:1031C000606000202060F868401CF86000F0CAFED3
:1031D00016F0070F07D0502080F31188BFF34F8FF0
:1031E000BFF36F8FFEE73046BDE8F081800000201E
:1031F00098000020001F4FF080730360001F21F033
:1032000001010160001F0549016014380260001FC0
:103210006FF0020101602038704700006130000843
:103220000169436882689A60836842685A604A68A4
:10323000824201D182684A60002202610868401E11
:103240000860086870470000034B036003F15C00EE
:1032500008608020106070470C180020044B036049
:1032600003F15C0008604FF480701060704700004C
:10327000681A002000F1080141604FF0FF328260BF
:10328000C160016100210160704700210161704748
:1032900010B4D1F800C0BCF1FF3F02D000F1080229
:1032A00002E0026904E01A4653681C686445FAD9D2
:1032B00053684B6099608A60516008610168491CDD
:1032C000016010BC704742684A6093688B609368E5
:1032D0005960916008610168491C016070470000F5
:1032E000502080F31188BFF34F8FBFF36F8F0A49CF
:1032F0004868401C486001280CD10848006810F05C
:10330000FF0F07D0502080F31188BFF34F8FBFF31A
:103310006F8FFEE770470000A000002004ED00E082
:1033200009494868002806D0401E4860002801D19D
:1033300080F311887047502080F31188BFF34F8FBE
:10334000BFF36F8FFEE70000A000002070B50028DB
:103350002AD0A0F10804154D60686969084207D1B8
:10336000502080F31188BFF34F8FBFF36F8FFEE7BC
:1033700022683AB1502080F31188BFF34F8FBFF31A
:103380006F8FFEE78843606000F03EF9606869680F
:10339000084468602046FFF79FFC2869401C2861AC
:1033A000BDE8704000F0DEBD70BD00008000002070
:1033B0004FF0E02000210161816105494FF47A72EC
:1033C0000968B1FBF2F1491E4161072101617047B3
:1033D0002000002010B5FCF73DFF114910280ED346
:1033E00000F1E02090F8F0030A78904207D25020D4
:1033F00080F31188BFF34F8FBFF36F8FFEE709484B
:103400000068896800F4E060884207D9502080F3A2
:103410001188BFF34F8FBFF36F8FFEE710BD000021
:10342000A00000200CED00E00022084B53F832C051
:10343000BCF1000F03D0521C082AF7D3704743F8A1
:10344000321003EBC201486070470000F011002009
:1034500070B504460D461646FFF742FF94F9440046
:10346000B0F1FF3F4FF0000001D184F8440094F91F
:103470004510B1F1FF3F01D184F84500FFF750FF3F
:10348000A06B28B93246294604F1240000F056F812
:103490002046BDE87040FFF705BE000010B50246AB
:1034A0000020002A12D00F48006B38B1502080F362
:1034B0001188BFF34F8FBFF36F8FFEE700F0A4F8C2
:1034C00000211046FFF702FA00F04CFD002807D15A
:1034D00005494FF080500860BFF34F8FBFF36F8FE7
:1034E00010BD00002C00002004ED00E002490A6A33
:1034F0000260C968416070472C000020014901202A
:10350000C86170472C00002010B50C4600280BD075
:10351000094A126802F11801FFF7BAFE2046BDE819
:1035200010400121FFF7D2B9502080F31188BFF37A
:103530004F8FBFF36F8FFEE72C00002070B50D4654
:10354000144600280DD00B4909681831FFF7BBFE5F
:103550000CB14FF0FF3521462846BDE87040FFF71B
:10356000B5B9502080F31188BFF34F8FBFF36F8F31
:10357000FEE700002C00002030B587B0002506953E
:10358000059504AA05A906A8FFF75EFE0698059909
:10359000019102900023009517A11948049A00F0A8
:1035A000BBFB184CE06208B1012000E000200128BC
:1035B00001D100F03DFD01280AD0B0F1FF3F19D143
:1035C000502080F31188BFF34F8FBFF36F8FFEE75A
:1035D000502080F31188BFF34F8FBFF36F8F4FF0F0
:1035E000FF30A06201206061E56007B0BDE83040B7
:1035F00000F048B807B030BD49444C450000000019
:10360000992B00082C0000200248016B491C016323
:10361000704700002C000020184B186B002802D0C7
:103620000120D86170470020D8611869144900EB67
:10363000800251F822203AB9C0B1401E00EB80024E
:1036400051F82220002AF7D000EB800201EB820122
:103650004A6852684A6001F1080C624501D152681B
:103660004A604968C968196018617047502080F342
:103670001188BFF34F8FBFF36F8FFEE72C00002040
:103680003012002010B582B038480168384A9142A3
:1036900007D1502080F31188BFF34F8FBFF36F8F96
:1036A000FEE700683349884207D1502080F3118833
:1036B000BFF34F8FBFF36F8FFEE72F49087801905C
:1036C000FF200870087800909DF800009DF8002009
:1036D00000F0F000904207D0502080F31188BFF333
:1036E0004F8FBFF36F8FFEE79DF80000234C00F073
:1036F000500020700720A0609DF8000010F0800F9F
:103700000BD0A068401EA0609DF800004000009013
:103710009DF8000010F0800FF3D1A068032807D0B7
:10372000502080F31188BFF34F8FBFF36F8FFEE7F8
:103730004FF44070A060019808701148016841F48E
:1037400070010160016841F070410160FFF730FED7
:1037500000206060FCF746FD0A48016841F04041E6
:103760000160FCF72BFD02B0002010BD00ED00E071
:1037700071C20F4170C20F4100E400E0A0000020C0
:1037800020ED00E034EF00E010B5502080F3118808
:10379000BFF34F8FBFF36F8F00F002FB18B10449E6
:1037A0004FF080500860002080F3118810BD0000A9
:1037B00004ED00E038B5049D002804D05BB102B1EF
:1037C00089B1C2B120E0502080F31188BFF34F8F40
:1037D000BFF36F8FFEE7502080F31188BFF34F8F48
:1037E000BFF36F8FFEE7502080F31188BFF34F8F38
:1037F000BFF36F8FFEE739B1502080F31188BFF31C
:103800004F8FBFF36F8FFEE74FF0500CCDF800C025
:103810001C46012384F846302B460094FFF7D0F96C
:10382000204638BD70B504460D46002C25D0FFF764
:1038300057FD226CE16B206801FB0200A0600020B4
:10384000A06320686060E16B226C2068491E01FB68
:103850000200E0604FF0FF3084F8440084F8450037
:103860009DB104F11000FFF705FD04F12400FFF7FE
:1038700001FDFFF755FD012070BD502080F3118838
:10388000BFF34F8FBFF36F8FFEE720690028F0D0A2
:1038900004F1100000F02AFB0028EAD004494FF0A0
:1038A00080500860BFF34F8FBFF36F8FE1E70000D8
:1038B00004ED00E02DE9FF4782B004468A461F462A
:1038C0000025002C03D0BAF1000F08D011E05020E1
:1038D00080F31188BFF34F8FBFF36F8FFEE7206C2B
:1038E00038B1502080F31188BFF34F8FBFF36F8F33
:1038F000FEE7022F0AD1E06B012807D0502080F3A9
:103900001188BFF34F8FBFF36F8FFEE700F034FADB
:1039100048B9049838B1502080F31188BFF34F8F15
:10392000BFF36F8FFEE700264FF08058DFF8F0906E
:10393000FFF7D6FCA06BE16B884205D3022F03D0C2
:10394000049808B335B329E03A4651462046FFF7BC
:1039500091F8616A59B104F1240000F0C7FA68B126
:10396000C9F80080BFF34F8FBFF36F8F06E028B117
:10397000C9F80080BFF34F8FBFF36F8FFFF7D0FC04
:1039800006B00120BDE8F087FFF7CAFC06B00020B2
:10399000BDE8F0876846FFF7A9FD0125FFF7C0FCE9
:1039A000FFF732FEFFF79CFC94F94400B0F1FF3FB3
:1039B00001D184F8446094F94500B0F1FF3F01D192
:1039C00084F84560FFF7ACFC04A9684600F02EF9C6
:1039D00040B12046FFF766FB00F0C4FA06B00020B5
:1039E000BDE8F0872046FFF7D6F990B104F110004A
:1039F0000499FFF789FD2046FFF754FB00F0B2FA67
:103A0000002895D1C9F80080BFF34F8FBFF36F8FA7
:103A10008EE72046FFF746FB00F0A4FA88E7000097
:103A200004ED00E02DE9F0470446894617461E469E
:103A3000002C03D0B9F1000F08D011E0502080F322
:103A40001188BFF34F8FBFF36F8FFEE7206C38B143
:103A5000502080F31188BFF34F8FBFF36F8FFEE7C5
:103A6000022E0AD1E06B012807D0502080F3118884
:103A7000BFF34F8FBFF36F8FFEE7FFF7ABFC502014
:103A8000EFF3118880F31188BFF34F8FBFF36F8F6F
:103A9000A06BE16B884206D3022E04D0002088F38D
:103AA0001188BDE8F08794F94550A06B324649462D
:103AB0002046FEF7DFFFB5F1FF3F04D0681C84F815
:103AC00045000120EBE7606A0028FAD004F12400E9
:103AD00000F00CFA0028F4D0002FF2D0012038605A
:103AE000EFE700002DE9F74783B004468A4600253A
:103AF000002C03D0BAF1000F08D011E0502080F361
:103B00001188BFF34F8FBFF36F8FFEE7206C38B182
:103B1000502080F31188BFF34F8FBFF36F8FFEE704
:103B200000F02AF948B9059838B1502080F311887F
:103B3000BFF34F8FBFF36F8FFEE700274FF0805822
:103B4000DFF8E490FFF7CCFBA66BC6B151462046E8
:103B5000FEF77EFF701EA063206950B104F11000D3
:103B600000F0C4F928B1C9F80080BFF34F8FBFF34C
:103B70006F8FFFF7D5FB06B00120BDE8F0870598F1
:103B800008B135B109E0FFF7CBFB06B00020BDE876
:103B9000F0876846FFF7AAFC0125FFF7C1FBFFF796
:103BA00033FDFFF79DFB94F94400B0F1FF3F01D1D5
:103BB00084F8447094F94500B0F1FF3F01D184F8D6
:103BC0004570FFF7ADFB05A9684600F02FF868B116
:103BD0002046FFF767FA00F0C5F92046FFF7CEF858
:103BE0000028AFD006B00020BDE8F0872046FFF7E0
:103BF000C5F890B104F124000599FFF785FC204633
:103C0000FFF750FA00F0AEF900289BD1C9F8008008
:103C1000BFF34F8FBFF36F8F94E72046FFF742FA51
:103C200000F0A0F98EE7000004ED00E070B5054655
:103C30000C46002D15D0E4B1FFF752FBDFF868C049
:103C4000DCF80C006B68C11A2268B2F1FF3F18D093
:103C50002E68DCF820C0664515D0834213D80124B5
:103C60001DE0502080F31188BFF34F8FBFF36F8F9B
:103C7000FEE7502080F31188BFF34F8FBFF36F8FA3
:103C8000FEE700240BE08A4206D9501A206028463D
:103C9000FFF72CFC002402E0002020600124FFF745
:103CA0003FFB204670BD00002C0000202DE9F04FA6
:103CB00085B081460F9F0E9E8A4690469B464FEAEE
:103CC0008800FFF723FA054628000AD05C20FFF79A
:103CD0001DFA04460CB1256304E02846FFF736FBC5
:103CE00000E000249CB1002084F8590003905B465A
:103CF000424651460197009602944846FEF771FFEE
:103D00002046FEF713FE05B00120BDE8F08F05B098
:103D10004FF0FF30BDE8F08F70B586B00646DDF895
:103D200028C00C9C0B98002816D0ECB15C2504959B
:103D30002063022084F85900002005AD0390CDF8DF
:103D400000C0019502943046FEF74BFF2046FEF777
:103D5000EDFD059806B070BD502080F31188BFF3CB
:103D60004F8FBFF36F8FFEE7502080F31188BFF3B2
:103D70004F8FBFF36F8FFEE705484169002903D0DD
:103D8000006B18B100207047012070470220704777
:103D90002C0000200148C068704700002C00002063
:103DA0002DE9F04100262F4F386B002805D0B86967
:103DB000401CB8613046BDE8F081F868451CFD60E4
:103DC0009DB9786B006838B1502080F31188BFF33B
:103DD0004F8FBFF36F8FFEE7786BB96B7963B86372
:103DE000386A401C3862FFF7D7F8B86ADFF8788085
:103DF00085420DD3786B006838B1786BC068C468B1
:103E00006068854212D2B86202E04FF0FF30B862BB
:103E10003868C06A00EB800058F82000012800D9FB
:103E20000126F8690028C5D00126C3E7201DFFF749
:103E3000F7F9A06A18B104F11800FFF7F1F9E16A87
:103E40003869814200D9396101EB810008EB8000BB
:103E5000211DFFF738FAE06A3968C96A8842C9D378
:103E60000126C7E72C0000203012002070B5044660
:103E70000021002833D01B4D2868844207D05020F1
:103E800080F31188BFF34F8FBFF36F8FFEE7206D74
:103E900038B1401E2065E36CE26A9A421FD040B1FF
:103EA0001DE0502080F31188BFF34F8FBFF36F8F59
:103EB000FEE7201DFFF7B4F9E06CE062C0F13800C6
:103EC000A061E06A2969884200D92861064900EBAF
:103ED000800001EB8000211DFFF7F5F90121084664
:103EE00070BD00002C0000203012002070B5C068AA
:103EF000C468002C14D004F11800FFF791F9164D96
:103F0000286BA8B104F118011448FFF7DCF9E06A46
:103F10002968C96A88421CD901200121E96170BD64
:103F2000502080F31188BFF34F8FBFF36F8FFEE7F0
:103F3000201DFFF775F9E06A2969884200D92861D8
:103F4000074900EB800001EB8000211DFFF7BBF962
:103F5000DDE7002070BD00002C000020B816002016
:103F6000301200202DE9F047002400272D4D286B4A
:103F7000002807D0FFF7B4F9286B401E2863286B90
:103F800040B149E0502080F31188BFF34F8FBFF359
:103F90006F8FFEE7A86800283ED0234E30684FF0B0
:103FA000010800B3A6F59169F068C46804F118002F
:103FB000FFF736F9201DFFF733F9E06A29698842D7
:103FC00000D9286100EB800009EB8000211DFFF77C
:103FD0007AF9E06A2968C96A884201D3C5F81C8069
:103FE00030680028E0D10CB1FEF7D6FFAC694CB1C7
:103FF000FFF7D6FE08B1C5F81C80641E002CF7D16F
:104000000020A861E86938B101270849380708602D
:10401000BFF34F8FBFF36F8FFFF782F93846BDE8CC
:10402000F08700002C000020B816002004ED00E00E
:1040300030B587B00024FEF7BDFC134D2868B0B141
:1040400000200690059004AA05A906A8FFF706F926
:1040500005990698022200920191029000230BA17B
:104060000C48049AFFF758FE686000B1012414B1AF
:1040700007B0204630BD502080F31188BFF34F8F2A
:10408000BFF36F8FFEE7000068000020546D7220C0
:104090005376630091300008F0B585B084460A9DE0
:1040A00016461F460022BCF1000F14D0164C2068A3
:1040B00000B300910196CDF808C006291BDAFFF77E
:1040C0005BFE02280FD000231A4669462068FFF7DE
:1040D000F1FB024615E0502080F31188BFF34F8FAB
:1040E000BFF36F8FFEE700232A4669462068FFF77B
:1040F000E1FB024605E000233A466946FFF792FCE1
:10410000024605B01046F0BD6800002000420008DD
:10411000000000000000000000000000000000009F
:104120000002000019000000000000000000000074
:10413000F441000800000000000000000000000042
:104140000000000000020000190000000000000054
:1041500000000000184200080000000000000000FD
:104160000000000000000000000200001C00000031
:1041700000000000000000000C42000800000000E9
:10418000000000000000000000000000000200002D
:104190001D00000000000000000000000000000002
:1041A00000000000010203040607080900000000E7
:1041B00001020304000000000000000000000000F5
:1041C00000000000000000000000000000000000EF
:1041D00001000000010000000E00000000000000CF
:1041E00000000000040000000000000000000000CB
:1041F000000000004C43445F5461736B00000000FA
:104200004148525F5461736B000000004D61696E5C
:104210005F5461736B000000436861737369735F7F
:104220005461736B00000000484200080000002049
:10423000AC000000D8250008F4420008AC000020C3
:10424000245E0000E82500080000000000000000D7
:10425000000000000000000000000000010000005D
:1042600010000000000000000024F4000000000026
:10427000000000000000000000000000000000003E
:10428000000000000000000000000000000000002E
:10429000000000000000000000000000000000001E
:1042A000000000000000000000000000000000000E
:1042B00000000000000000000000000000000000FE
:1042C00000000000000000000000000000000000EE
:1042D00000000000000000000000000000000000DE
:1042E000000000000000000000000000AAAAAAAA26
:0442F00000000000CA
:040000050800018965
:00000001FF
